:1000000080314F28080008007E1480314E01161EF2
:100010000A280B2813280C1E0E280F2813288031BD
:10002000022080314D280B1F162817284D28191E35
:100030001A281B2826280F1E1E281F2826284101A3
:1000400067088A0066080A0080314D28991E292811
:100050002A2835288F1E2D282E283528410165088D
:100060008A0064080A0080314D281C1C3828392871
:100070004128121C3C283D2841288831A720803186
:100080004D289C1C442845284D28921C4828492866
:100090004D288831B92080314D287E1009008031EB
:1000A00051280630840088308500E8308600003012
:1000B00087000830883100208031F001F101F20121
:1000C000F301F4015F308400003085000C3097317B
:1000D000F2278031A030840000308500483097310D
:1000E000F227803120308400013085004030973184
:1000F000F2278031A03084000130850040309731F4
:10010000F22780317E1040018531532D4001B80027
:100110002F0886008701403FB100413FB2003108FF
:100120008400320885001200253A031D982899287A
:10013000FF2A2F088600870101308107413103180B
:10014000810A4101C801C9010310003003180130C0
:100150004001E100FF304101CA00FF30CB00400107
:100160002F0886008701403FB900413FBA00390897
:1001700084003A0885000008BF00C8280130B9078C
:100180000030BA3DD6286930BF00D628BF01D62836
:100190003F08643A0319C3280D3A0319C328053AE6
:1001A0000319BE28193A0319C328C6283908840040
:1001B0003A0885001200643A0319DF28E028122962
:1001C000390884003A0885001200693A031DE928BD
:1001D000EA28B02912293008860087010108840026
:1001E000850102308107003FB100013FB2003108B4
:1001F000BB003208BC00890D893B8909BD00BE00E7
:100200001A2930088600870101088400850104301E
:100210008107003FBB00013FBC00023FBD00033F20
:10022000BE001A293F08693A0319EB28053A031959
:1002300001291A293908013EB10000303A3DB200C7
:100240002F08860087013108C03F3208C13F2030A7
:10025000BF00BE1B2C292E2901302F290030B700EA
:100260000130BF023F08203E860001308700003089
:10027000A3000030A2000030A1000A30A0003E0818
:10028000A7003D08A6003C08A5003B08A4008D314E
:10029000CB25803140012108AC002008AB0087311C
:1002A000EE27803140012B08303E81000030A30052
:1002B0000030A2000030A1000A30A0003E08A700D4
:1002C0003D08A6003C08A5003B08A4008E31C526C9
:1002D000803140012308BE002208BD002108BC0077
:1002E0002008BB003E083D043C043B040319792967
:1002F0007A297F293F08031D7E297F2930293F085D
:10030000031983298429A9293708031988298929E8
:10031000A9290130BF023F08203E86000130870036
:100320002D308100A9293F08203E8600013087003A
:100330000108B100B2013108A0003208A10038085C
:10034000A2008C313624803101304001B1003108E7
:10035000BF0720303F06031DAE29AF299329172B75
:10036000390884003A0885001200753A031DB9293E
:10037000BA29652ADF293008860087010108840030
:10038000850102308107003FB100013FB200310812
:10039000BB003208BC00BD01BE01E7293008860061
:1003A000870101088400850104308107003FBB00FC
:1003B000013FBC00023FBD00033FBE00E7293F08EC
:1003C000693A0319BB29053A0319CE29E7293908E7
:1003D000013EB10000303A3DB2002F08860087018F
:1003E0003108C03F3208C13F5C2A2030BF000130D5
:1003F000BF023F08203E8600013087000030A30086
:100400000030A2000030A1000A30A0003E08A70082
:100410003D08A6003C08A5003B08A4008B319C23A6
:10042000803140012008303E81000030A3000030C0
:10043000A2000030A1000A30A0003E08A7003D083D
:10044000A6003C08A5003B08A4008C31892480311B
:1004500040012308BE002208BD002108BC0020087E
:10046000BB003E083D043C043B040319382A392AEA
:10047000552A3F08031D3D2A3E2AF729552A3F08E1
:10048000203E8600013087000108B100B20131082A
:10049000A0003208A1003808A2008C313624803137
:1004A00001304001B1003108BF0720303F06031D75
:1004B0005A2A5B2A3F2A172B390884003A088500FC
:1004C0000008753A0319F529652AB7012F08860037
:1004D0008701403FB100413FB2003108840032083B
:1004E00085001200733A031D762A772A822A2F0884
:1004F000860087010130810741310318810AB70165
:10050000B70AC42A2F0886008701403FB100413F47
:10051000B200310884003208850012006C3A031DD5
:10052000922A932AC42A2F0886008701403FB100EF
:10053000413FB20001303107840032080318320A0B
:10054000850012006C3A031DA62AA72AC42A2F0888
:1005500086008701403FB100413FB20002303107C1
:10056000840032080318320A85001200733A031D12
:10057000BA2ABB2AC42A2F088600870103308107C4
:1005800041310318810A7F2A37080319C82AC92A6A
:10059000F52A3008860087010108840085010230B1
:1005A0008107003FB500013FB600EB2A3508860001
:1005B000360887000108B100B2013108A0003208F6
:1005C000A1003808A2008C3136248031013040016E
:1005D000B5070030B63D35088600360887000108AB
:1005E000031DF32AF42AD62A172B40012F08860070
:1005F00087010130810741310318810A172B2F0829
:1006000086008701403FB100413FB20031088400BD
:10061000320885000008B300B4013308A000340894
:10062000A1003808A2008C3136248031F52A080058
:10063000400131088039BB003135C100B01F212B8A
:10064000222B232B411441080319272B282B372B4E
:10065000410A031D2C2B2D2B352B0030B10000300F
:10066000B0000030AF000030AE00B0173F2B0030BC
:10067000B1000030B0000030AF000030AE003508EF
:100680008039B6003608BB063535BC00B41F492B8F
:100690004A2B4B2B3C143C0803194F2B502B5F2B40
:1006A0003C0A031D542B552B5D2B0030B500003048
:1006B000B4000030B3000030B200B417672B003034
:1006C000B5000030B4000030B3000030B2003C0888
:1006D00003196B2B6C2B712B4108031D702B712B95
:1006E0007A2B0030B1000030B0000030AF00003095
:1006F000AE00522D2E08A00034088A314B228331DF
:1007000040012108C7002008C6004608B600B7010E
:10071000B801B9013908C0003808BF003708BE0069
:100720003608BD004708B600B701B801B90139085D
:10073000C5003808C4003708C3003608C2002F08B7
:10074000A00033088A314B22833140012108C700C1
:100750002008C6004608B600B701B801B90136083E
:10076000BD073708BE3D3808BF3D3908C03D4708C2
:10077000B600B701B801B9013608C2073708C33D52
:100780003808C43D3908C53D3008A00032088A3118
:100790004B22833140012108C7002008C6004608CB
:1007A000B600B701B801B9013608BD073708BE3D2C
:1007B0003808BF3D3908C03D4708B600B701B80149
:1007C000B9013608C2073708C33D3808C43D3908A7
:1007D000C53D0830BD35BE0DBF0DC00D890BEA2BE0
:1007E0002F08A00032088A314B22833140012108B2
:1007F000C7002008C6004608BD074708BE3D0030B8
:10080000BF3DC03D2E08A00033088A314B22833102
:1008100040012108C7002008C6004608BD07470858
:10082000BE3D0030BF3DC03D0830BD35BE0DBF0DE3
:10083000C00D890B152C2E08A00032088A314B22DE
:10084000833140012108C7002008C6004608BD07C3
:100850004708BE3D0030BF3DC03D2F08A000340812
:100860008A314B22833140012108C7002008C6008D
:100870004608C2074708C33D0030C43DC53D3008A7
:10088000A00033088A314B22833140012108C70080
:100890002008C6004608C2074708C33D0030C43DD3
:1008A000C53D3008A00034088A314B228331400115
:1008B0002108C7002008C6004608B6004708B70050
:1008C000B801B9010830B635B70DB80DB90D890BAF
:1008D000632C3608C2073708C33D3808C43D3908C1
:1008E000C53D3D08B6003E08B7003F08B8004008C7
:1008F000B9001830B936B80CB70CB60C890B7A2C85
:100900003608C2073708C33D3808C43D3908C53D1D
:100910000830BD35BE0DBF0DC00D890B892C4108B7
:100920003C07B600B701B70D3608823EC600FF305F
:10093000373DC700B22C0130C235C30DC40DC50D03
:10094000890B9C2CC01FA52CA62CA72C421401306F
:10095000BD35BE0DBF0DC00D890BA82CFF30C607DD
:10096000FF30C73DC41FB52CB62C9B2CBC01C01F4B
:10097000BA2CBB2CD72CFF303D05B600FF303E050E
:10098000B700FF303F05B8007F304005B900390897
:100990003804370436040319CE2CCF2CD22CBC01DA
:1009A000BC0AD72C421CD52CD62CD72CCF2C3C08DB
:1009B0000319DB2CDC2C042D0130C2070030C33DB1
:1009C0000030C43D0030C53D451CE72CE82C042D0B
:1009D0004208B6004308B7004408B8004508B9000B
:1009E0000130BA00B937B80CB70CB60CBA0BF22C00
:1009F0003908C5003808C4003708C3003608C200EB
:100A00000130C6070030C73D4708803AB600803045
:100A10003602031D0D2DFF304602031C102D112D33
:100A20001B2D7F304001C5008030C4000030C30062
:100A30000030C200462D40014708803AB6008030A1
:100A40003602031D252D013046020318282D292DBD
:100A5000342D00304001C5000030C4000030C30018
:100A60000030C200BB01462D40014608C100FF30E6
:100A7000C205FF30C3057F30C4050030C505411CE9
:100A8000422D432D442DC4174136C5003B08B60006
:100A90003608C5044508B1004408B0004308AF005B
:100AA0004208AE0008008831F92085318B170B17FA
:100AB00083304001A0000930A10088311720853122
:100AC000A2304001A0000930A100883120208531EA
:100AD000C9304001A2009030A3008A310422853140
:100AE00000304101EF000230EE002230ED00E03036
:100AF000EC0088310E20853100304001AA00AB00A7
:100B00008A31BC22853100304001D2004030D30010
:100B100041016F084001D70041016E084001D60035
:100B200041016D084001D50041016C084001D4002D
:100B300087315B27853100304001AA00AB008A3144
:100B4000BC2285314E011C109C1086315F268531F8
:100B5000400165080319AD2DAE2D022E41014E084E
:100B60004F040319B42DB52D022EB1304001C7003A
:100B70009030C800410145084001CA0041014408C5
:100B80004001C90040308931652185314030400144
:100B9000A2000130A3008A31042285317F30400158
:100BA000C7009030C800410147084001CA00410118
:100BB00046084001C9004030893165218531403007
:100BC0004001A2000130A3008A3104228531F630B1
:100BD0004001C7009030C80041014F084001CA00E1
:100BE00041014E084001C9004030893165218531FD
:100BF00040304001A2000130A3008A310422853137
:100C00004001E501400163080319072E082EA52DB8
:100C100041014C084D0403190E2E0F2EA52D9830BE
:100C20004001C7009030C800410141084001CA009E
:100C3000410140084001C9004030893165218531BA
:100C400040304001A2000130A3008A3104228531E6
:100C50004C304001C7009030C800410143084001BA
:100C6000CA00410142084001C90040308931652174
:100C7000853140304001A2000130A3008A310422B6
:100C80008531E0304001C7009030C80041014D0877
:100C90004001CA0041014C084001C900403089317F
:100CA0006521853140304001A2000130A3008A3126
:100CB000042285314001E301A52D80314F28883180
:100CC00056208631003A0319662E672E5A2F4001AE
:100CD0006008803ADE0080305E02031D712E3F30D6
:100CE0005F020318742E752E3A2F8A316F228631D7
:100CF0004001DE005F08A03E8600013087005E08EC
:100D000081005F08A03E8600013087000A3001069E
:100D1000031D8B2E8C2E352F5F08A03E86000130E0
:100D2000870081014730A0009130A100A0308A31B6
:100D3000E5228631400120082104031DA02EA12EAA
:100D4000C82E2D30C7009130C80040308931652150
:100D5000863140304001A2000130A3008A310422D4
:100D600086314001E4014101C401C501C601C7014A
:100D7000CE01CF014E011C144001E2014101C0012E
:100D8000C101C201C301CC01CD014E019C14262F2B
:100D90001E30C7009130C800A030C9000130CA0021
:100DA000403089316521863140304001A200013058
:100DB000A3008A3104228631A0308E314726863145
:100DC000400126084101EC00400127084101ED00E7
:100DD000890D893B8909EE00EF0000304001D20007
:100DE0004030D30041016F084001D70041016E0837
:100DF0004001D60041016D084001D50041016C0859
:100E00004001D40087315B2786310B304001C70099
:100E10009130C80041016F084001CC0041016E08CB
:100E20004001CB0041016D084001CA0041016C083E
:100E30004001C90040308931652186314030400190
:100E4000A2000130A3008A31042286314001DF0173
:100E5000E0010030A000A1004030A2000030A3005B
:100E6000A03089312D2186315A2F0130DF07003023
:100E7000E03D5A2F66304001C7009030C800403036
:100E800089316521863140304001A2000130A30044
:100E90008A310422863100304001A000A100403098
:100EA000A2000030A300A03089312D2186314001FD
:100EB000DF01E001080040015708A3005608A20026
:100EC0005508A1005408A00000308F315527873104
:100ED00040012308B5002208B4002108B30020080F
:100EE000B2004130B1002B30B000CC30AF007730D1
:100EF000AE0083311823873140013108CB00300820
:100F0000CA002F08C9002E08C8008C31E42487319C
:100F100040014B084201E30040014A084201E2005F
:100F2000400149084201E100400148084201E00057
:100F300060084001D800420161084001D900420127
:100F400062084001DA00420163084001DB000E3014
:100F5000DB36DA0CD90CD80C890BA82FFF305805DA
:100F6000DC003F305905DD0000305C044201E40044
:100F7000403040015D044201E500FF306005400162
:100F8000D8003F30420161054001D90000305804CB
:100F90004201E6004030400159044201E7000030C0
:100FA0004001AA002030AB008A31BC2287314201C7
:100FB00067084001AB00420166084001AA008A317F
:100FC000BC228731420165084001AB004201640840
:100FD0004001AA008A31BC22873108004001AC1BC5
:100FE000F22FF32FF42FFF2F2B09AD002C09AE00A9
:100FF000AD0A0319AE0A2D08AB002E08AC0008009C
:10100000FE0012001E00FE0B012800347734CC34A1
:101010002B34413496340034003400340030400125
:10102000AA000130AB008A31BC228831080040019F
:1010300021084201EB00400120084201EA000800BB
:10104000400121084201E900400120084201E80076
:101050000800603051018D008F019101063093002E
:1010600092010800400121084101E30040012008ED
:101070004101E20008004E0119100F1043018F01D9
:10108000900192018D010800400121084101DB001F
:10109000400120084101DA00080040012108410117
:1010A000DD00400120084101DC00080040016A0821
:1010B000031D5B285D2801305E28003008004E01CA
:1010C0000C100B1400304001A0000030A10088314A
:1010D00032208831080040012008210403197128BA
:1010E0007228792821084101D700400120084101D8
:1010F000D600080040012008210403198028812817
:10110000882821084101D500400120084101D40070
:10111000080040012008210403198F2890289728EF
:1011200021084101E500400120084101E4000800D8
:1011300040012008210403199E289F28A628210881
:101140004101E700400120084101E60008004E018E
:10115000121046010C08F8000D08F9007908F60095
:101160007808F50042016B088A006A080A00883195
:1011700008004E01921046011008F8001108F9000D
:101180007908F6007808F500420169088A006808C5
:101190000A0088310800863046018E008F018D01DB
:1011A0008C01E8304001A0001730A10088311720E1
:1011B000883144011E08FC3901389E004E0112108E
:1011C0001C140800863046019200930191019001A1
:1011D000E9304001A0001730A1008831202088317B
:1011E00044011E08F33904389E004E0192109C14ED
:1011F00008008831292088318B3155238831883186
:10120000CB2088318831E22088318B311823883116
:1012100088313B2088318A319422883188315F209F
:1012200088310800083072020318172918292A2962
:101230007308B83E86008701010842019A007308CE
:10124000013E0739F6007608F3000130F500750815
:10125000F2072C294E01191208004001A6002608A9
:10126000A5003C2925088600013087002008810060
:101270000130A4002408A5070130A2020030A33BDE
:10128000220A031D4729230A031D47294829322919
:1012900008004001C4004108C6004008C5005829A4
:1012A0004530AF004208B0004408803186208931C3
:1012B000400145088400460885001200031D61298D
:1012C00062295029C001C10108004001CF00493006
:1012D000CE004F08D000D201D301D901DA0148086D
:1012E000C1004708C0004E30C2005030893149214A
:1012F0008931400152084F07CD004D08860001306A
:1013000087008101080040016435C43E86008701E2
:101310007508C03F7608C13F6403031D90299129D9
:101320009D29410144084602CE004508473BCF00B5
:101330004E011C104001E501E50A0130F700770875
:10134000E406080040016235C03E8600870175084A
:10135000C03F7608C13F6203031DAF29B029BC29F5
:10136000410140084202CC004108433BCD004E0100
:101370009C104001E301E30A0130F7007708E20620
:1013800008004001A401A501201CC729C829CC29B7
:101390002208A4072308A53D0130A235A30D890B1F
:1013A000CD290130A136A00C890BD22920082104B7
:1013B000031DDB29DC29C4292508A1002408A0007D
:1013C00008004E01191AE529E629EB2940012008F9
:1013D00042019A00012A72080319EF29F029012A13
:1013E0007408B83E86008701400120088100740817
:1013F000013E0739A1002108F4004E011912013005
:10140000F2024E01191608001C2A9731F8278A317A
:10141000003A03190C2A0D2A052A400122088400EB
:10142000230885000008A0008931E1218A310130BC
:101430004001A2070030A33D400122088400230898
:1014400085001200031D252A262A052A08004001CE
:101450002008A6002208A5002108A400442A260886
:1014600086008701010843018C004E010F1C392AB8
:101470003A2A352A0F1001304001A3002308A6079D
:101480000130A4020030A53B24082504031D492A8D
:101490004A2A2F2A08004001A800A401A50120081B
:1014A000A200A3012208A6002308A700281C592A8D
:1014B0005A2A5E2A2608A4072708A53D0130A6352A
:1014C000A70D890B5F2A0310A80C2808031D692AA1
:1014D0006A2A562A2508A1002408A00008007008DE
:1014E000B03E8600870101084001A1007008013E5E
:1014F0000739A0002008F0007035A03E8600870163
:10150000403F4101D800413FD9004E0199124001AE
:101510006A0803198C2A8D2A8F2A0130EA024E01AB
:10152000991640012108080044010E108F01900116
:1015300002309100FF308D00FE308C000D0841011B
:10154000E10044010C084101E00000304001A0002E
:101550000030A10088314D208A3100304001A000C8
:101560000030A100883144208A314E011010111042
:10157000053044018E00080040012B08AC002A0809
:10158000AD00A6018D3155258A31003A0319C92ACB
:10159000CA2AE42A400119132C30A0000130A1000E
:1015A0000030A2008A3127228A312D304001A0006C
:1015B0000130A1000030A2008A3127228A31400187
:1015C00019179731EB278A3108004001A300F02A50
:1015D0000130A2002208A3070130A0070030A13D7E
:1015E00020088400210885000008A2002308860046
:1015F0000130870001082206031DFF2A002B092B5A
:1016000023088600013087000108031D082B092BE1
:10161000E82A23088600013087002008840021087A
:10162000850000080102A000A101031CA10308001D
:101630004E019912E7304001A0000B30A100883123
:1016400089208B314E01191212304001A00009305F
:10165000A100883198208B31483042019F009030A2
:101660009D0026309E0040309B0003309C00EA30F5
:101670004001A0001730A10088316B208B31EE3083
:101680004001A0001730A10088317A208B31410140
:10169000D801D901F401F3010830F200F101F001A1
:1016A0004001EA014E019916080040019801990194
:1016B0009A011F30920080309300FF309400073071
:1016C0007E01B8008030C300CF30CE00B901C40124
:1016D000CF01BA01C501D0013730BB00F030C600E0
:1016E000FF30D1003F30BC00F030C700FF30D200E7
:1016F00004307D01CB0014307E019C000F3095003A
:101700000D307D01C50013307E019D0015307D0137
:10171000A2000A307E01A50014307D01A10009302D
:101720007E01A400BD01BE01BF01C801C901CA01FB
:10173000D301D401D501080040012308220421046B
:1017400020040319A42BA52BDE2BA901A90AB32B76
:101750000130A035A10DA20DA30D890BA92B0130DD
:10176000A8002808A907A31FB62BB72BA82B23086E
:101770002702031DC52B22082602031DC52B2108A5
:101780002502031DC52B20082402031CC82BC92BCE
:10179000D12B2008A4022108A53B2208A63B230840
:1017A000A73B0130A336A20CA10CA00C890BD22BB5
:1017B0000130A902031DDD2BDE2BB72B2708A30068
:1017C0002608A2002508A1002408A0000800713501
:1017D000A03E860087010030C03FC13F42019D1CF2
:1017E000F22BF32B042C7135A03E860087010115E6
:1017F0004101540855040319FE2BFF2B042C5508F6
:101800008A0054080A008C3142011D1D082C092C45
:101810001A2C7135A03E86008701811441015608BB
:1018200057040319142C152C1A2C57088A00560833
:101830000A008C3142011908F6007108013E07398F
:10184000F70077087006031D262C272C282C352C32
:101850007108B03E86008701760881007708F100A4
:101860000130F50075084001EA0708004001220830
:1018700003193B2C3C2C412C2208031D402C412CED
:10188000462C2008803103208C31882C2208093E08
:10189000860087011600010403194F2C502C6E2C72
:1018A0002208093E86008701403FA300413FA40073
:1018B0002208023E86008701403FA500413FA60066
:1018C0002608803AA7002408803A2702031D6A2CC4
:1018D0002308250203186D2C6E2C882C4001220849
:1018E000860087012208023E840085010008010766
:1018F000A300230886000130870020088100220809
:10190000023E860087010130810741310318810AB8
:10191000080000304001AC000030AB000030AA00ED
:101920000030A90023082204210420040319992C63
:101930009A2CDB2CAD01AD0AA82C0130A035A10DED
:10194000A20DA30D890B9E2C0130A8002808AD071D
:10195000A31FAB2CAC2C9D2C0130A935AA0DAB0DCF
:10196000AC0D890BAD2C23082702031DC12C2208C6
:101970002602031DC12C21082502031DC12C2008AD
:101980002402031CC42CC52CCE2C2008A402210840
:10199000A53B2208A63B2308A73B29140130A33608
:1019A000A20CA10CA00C890BCF2C0130AD02031DA1
:1019B000DA2CDB2CAC2C2C08A3002B08A2002A0864
:1019C000A1002908A0000800031040014A0D4B0D9A
:1019D000D1005108031DED2CEE2CF72C0030CB006C
:1019E0000030CA000030C9000030C800542D48083B
:1019F000CC004908CD004A08CE004B08CF001F306C
:101A0000CF36CE0CCD0CCC0C890B002D4C08D00061
:101A1000CA17FF30C805FF30C905FF30CA050030BE
:101A2000CB059630D102D11F162D172D2F2D510821
:101A3000803A973E03181D2D1E2D1F2DEE2C0130D0
:101A4000CB36CA0CC90CC80C890B202D0130CC0038
:101A50004C08D107031D2D2D2E2D1F2D442D203078
:101A60005102031C342D352D3F2DEE2C0130C8358D
:101A7000C90DCA0DCB0D890B372D0130D10251088C
:101A8000031D432D442D362D50080319482D492D93
:101A9000542DC809C909CA09CB09C80A0319C90ABA
:101AA0000319CA0A0319CB0A08004301901A592DD9
:101AB0005A2DC72D40012608A700A8012708A0001D
:101AC0002808A1000530A2000030A3008931C121FF
:101AD0008D3152304001200784001130213D803883
:101AE0008500000843018F0040012608A700A801D7
:101AF0002708A0002808A1000530A2000030A3009C
:101B00008931C1218D3153304001200784001130CB
:101B1000213D8038850000084301900040012608DF
:101B2000A700A8012708A0002808A1000530A200EE
:101B30000030A3008931C1218D315430400120078C
:101B400084001130213D8038850000084301920057
:101B500040012608A700A8012708A0002808A10026
:101B60000530A2000030A3008931C1218D315530EC
:101B70004001200784001130213D80388500000895
:101B800043018D0090164001A901A90AC92D400109
:101B9000A901290808004001AA01A71FD02DD12DB5
:101BA000DE2DA409A509A609A709A40A0319A50AF7
:101BB0000319A60A0319A70AAA01AA0AA31FE12D5D
:101BC000E22DED2DA009A109A209A309A00A03197C
:101BD000A10A0319A20A0319A30A23082204210453
:101BE00020040319F42DF52D2E2EA901A90A032E88
:101BF0000130A035A10DA20DA30D890BF92D0130E7
:101C0000A8002808A907A31F062E072EF82D2308D1
:101C10002702031D152E22082602031D152E21085A
:101C20002502031D152E20082402031C182E192E30
:101C3000212E2008A4022108A53B2208A63B230848
:101C4000A73B0130A336A20CA10CA00C890B222EBD
:101C50000130A902031D2D2E2E2E072E2A0803194E
:101C6000322E332E3E2EA409A509A609A709A40ADF
:101C70000319A50A0319A60A0319A70A2708A3002E
:101C80002608A2002508A1002408A00008004001A1
:101C9000AD00AB01AC01AA01512E0130A80028080B
:101CA000AD072D088600013087002030010603199A
:101CB0005A2E5B2E4D2E2D08860001308700F730FE
:101CC0000107A80005302802031C672E682E4D2E40
:101CD0002D088600013087002D300106031D712E6E
:101CE000722E792EAA01AA0A0130A8002808AD0791
:101CF000A22E2D088600013087002B300106031D1F
:101D0000822E832EA22E742E2D088600013087008D
:101D10002C08A1002B08A0000A30A2000030A3006C
:101D20008931C1218E3140012108A900010820021A
:101D3000A800031CA9032808303EAB000030293D51
:101D4000AC00742E2D08860001308700D0300107CA
:101D5000A8000A302802031CAE2EAF2E842E2A08BB
:101D6000031DB32EB42EC02E2B09A8002C09A900E8
:101D7000A80A0319A90A2808A6002908A700C42E42
:101D80002C08A7002B08A60008004001AA01A31FE9
:101D9000CA2ECB2ED82EA009A109A209A309A00AF8
:101DA0000319A10A0319A20A0319A30AAA01AA0A7C
:101DB000A71FDB2EDC2EEB2EA409A509A609A70977
:101DC000A40A0319A50A0319A60A0319A70A0130D0
:101DD000A8002808AA060030AE000030AD00003090
:101DE000AC000030AB0023082204210420040319B6
:101DF000FA2EFB2E3C2FA901A90A092F0130A0358C
:101E0000A10DA20DA30D890BFF2E0130A8002808FB
:101E1000A907A31F0C2F0D2FFE2E0130AB35AC0DE3
:101E2000AD0DAE0D890B0E2F23082702031D222FA7
:101E300022082602031D222F21082502031D222F1E
:101E400020082402031C252F262F2F2F2008A40250
:101E50002108A53B2208A63B2308A73B2B140130F1
:101E6000A336A20CA10CA00C890B302F0130A902C3
:101E7000031D3B2F3C2F0D2F2A080319402F412F04
:101E80004C2FAB09AC09AD09AE09AB0A0319AC0A7A
:101E90000319AD0A0319AE0A2E08A3002D08A200EB
:101EA0002C08A1002B08A00008004001A800280869
:101EB00003195B2F5C2F702FA31F5F2F602F702FD4
:101EC0002009AA002109AB002209AC002309AD00BA
:101ED000AA0A0319AB0A0319AC0A0319AD0A782F31
:101EE0002308AD002208AC002108AB002008AA009E
:101EF0002308220421042004031D7F2F802F892F13
:101F00000030A3000030A2000030A1000030A0008B
:101F1000FF2F9630A900972F0130A4002408A907AD
:101F20000130AD36AC0CAB0CAA0C890B912FFE30F6
:101F30002D05031D9C2F9D2F8C2FB12F0130A40048
:101F40002408A9070130AA070030AB3D0030AC3DA2
:101F50000030AD3D0130AD36AC0CAB0CAA0C890B9A
:101F6000AB2FFF302D05031DB62FB72F9E2FC12F8E
:101F70000130A9020130AA35AB0DAC0DAD0D890BB6
:101F8000BB2FAC1BC42FC52FCB2F02302902031847
:101F9000CA2FCB2FB82F2918CE2FCF2FD72FFF30F6
:101FA000AA05FF30AB057F30AC05FF30AD0503104F
:101FB000A90C2908A400A501A601A7011830A43581
:101FC000A50DA60DA70D890BDF2F2408AA0425084F
:101FD000AB042608AC042708AD0428080319F12F28
:101FE000F22FF72FA31FF52FF62FF72FAD172D0880
:101FF000A3002C08A2002B08A1002A08A0000800BA
:1020000018340B34003400346F340A34E1340934AA
:1020100056340834F83417340034003400340034B3
:102020000034003400340034003400340034003410
:102030000034003400340034003400340034003400
:1020400000340034983408348934083400340034BF
:102050006B3408347A3408340034003400340034EB
:102060003B3408340034003455340D34EB34173429
:10207000003400340034003427340A34003400348F
:1020800000340034003400340034003400340034B0
:102090000034003400340034433443345034323498
:1020A00020345334653463346F346E3464342034F4
:1020B00043346134703474347534723465343A3472
:1020C0002034253475340D340A3400340D340A3488
:1020D0004534783463346534653464346534643449
:1020E00020344234753466346634653472342034B6
:1020F000533469347A3465340D340A34003443344B
:102100004334503420345334653463346F346E3484
:10211000643420344334613470347434753472342C
:1021200065343A342034253475340D340A3400349F
:1021300043344334503432342034463469347234B6
:1021400073347434203443346134703474347534EB
:10215000723465343A342034253475340D340A34FD
:1021600000344334433450342034463469347234B8
:1021700073347434203443346134703474347534BB
:10218000723465343A342034253475340D340A34CD
:102190000034533443344D344134543455342034B2
:1021A000483465346C346C346F342C3420345734F8
:1021B0006F3472346C34643421340D340A34003496
:1021C0004334433450343234203444346934663434
:1021D00066346534723465346E34633465343A344D
:1021E0002034253475340D340A34003443344334F8
:1021F000503420344434693466346634653472347F
:1022000065346E34633465343A342034253475349F
:102210000D340A3400344634723465346334203467
:10222000733465347434203474346F343A34203465
:1022300025346C3464340D340A340034523465343B
:10224000633469346234693464346F343A3420342A
:10225000253473340D340A34003443344334503459
:10226000203465346E34613462346C3465346434E3
:102270000D340A34003494340A3400340034003409
:102280000034003400344D34083400340034433416
:10229000433450345F3445346E34613462346C34CA
:1022A0006534003440341A3410343F34003464341C
:0822B000003410340134003445
:102FD00008000800080043019012080042011D1279
:102FE0001D160800640080010131890BF32F0034A5
:102FF0007208031DFC2FFE2F0130FF2F0030080048
:020000040001F9
:0A000E00EC3F5D3F9F3FFF1FFF3FE7
:00000001FF
