:1000000080313128080008007E1480310B1F092838
:100010000A282F284E011C1C0E280F281728121CF6
:100020001228132817288E317B2680312F289C1CFC
:100030001A281B282328921C1E281F2823288E31AB
:100040008D2680312F28961E262827282F288C1EA3
:100050002A282B282F288E314E2680312F287E10DB
:10006000090080313328EC3084008D308500DA308F
:1000700086000030870008308D31E6258031203041
:1000800084000030850021308D31E0258031410130
:10009000E801E901EA01EB01EC01ED012030840007
:1000A0000130850040308D31E0258031A030840062
:1000B0000130850040308D31E02580317E104001D7
:1000C0008531832D410131088039BB003135C100B4
:1000D000B01F6B286C286D28411441080319712842
:1000E00072288128410A031D762877287F2800304E
:1000F000B1000030B0000030AF000030AE00B017EB
:1001000089280030B1000030B0000030AF0000306E
:10011000AE0035088039B6003608BB063535BC0060
:10012000B41F9328942895283C143C080319992857
:100130009A28A9283C0A031D9E289F28A72800303A
:10014000B5000030B4000030B3000030B200B41786
:10015000B1280030B5000030B4000030B3000030EA
:10016000B2003C080319B528B628BB284108031D76
:10017000BA28BB28C4280030B1000030B0000030DD
:10018000AF000030AE009C2A2E08A0003408873152
:10019000BD27803141012108C7002008C60046085C
:1001A000B600B701B801B9013908C0003808BF006E
:1001B0003708BE003608BD004708B600B701B801D1
:1001C000B9013908C5003808C4003708C30036082B
:1001D000C2002F08A00033088731BD2780314101BC
:1001E0002108C7002008C6004608B600B701B801BC
:1001F000B9013608BD073708BE3D3808BF3D39088C
:10020000C03D4708B600B701B801B9013608C207BA
:100210003708C33D3808C43D3908C53D3008A00043
:1002200032088731BD27803141012108C7002008ED
:10023000C6004608B600B701B801B9013608BD07C7
:100240003708BE3D3808BF3D3908C03D4708B600F5
:10025000B701B801B9013608C2073708C33D3808ED
:10026000C43D3908C53D0830BD35BE0DBF0DC00DBC
:10027000890B34292F08A00032088731BD2780312F
:1002800041012108C7002008C6004608BD074708ED
:10029000BE3D0030BF3DC03D2E08A0003308873171
:1002A000BD27803141012108C7002008C60046084B
:1002B000BD074708BE3D0030BF3DC03D0830BD35DD
:1002C000BE0DBF0DC00D890B5F292E08A00032089E
:1002D0008731BD27803141012108C7002008C600B1
:1002E0004608BD074708BE3D0030BF3DC03D2F0852
:1002F000A00034088731BD27803141012108C700A3
:100300002008C6004608C2074708C33D0030C43D68
:10031000C53D3008A00033088731BD278031410139
:100320002108C7002008C6004608C2074708C33D89
:100330000030C43DC53D3008A00034088731BD27DA
:10034000803141012108C7002008C6004608B600D8
:100350004708B700B801B9010830B635B70DB80D78
:10036000B90D890BAD293608C2073708C33D3808D7
:10037000C43D3908C53D3D08B6003E08B7003F08FA
:10038000B8004008B9001830B936B80CB70CB60C34
:10039000890BC4293608C2073708C33D3808C43D55
:1003A0003908C53D0830BD35BE0DBF0DC00D890BE8
:1003B000D32941083C07B600B701B70D3608823E85
:1003C000C600FF30373DC700FC290130C235C30DE0
:1003D000C40DC50D890BE629C01FEF29F029F129AD
:1003E00042140130BD35BE0DBF0DC00D890BF22981
:1003F000FF30C607FF30C73DC41FFF29002AE5298B
:10040000BC01C01F042A052A212AFF303D05B60081
:10041000FF303E05B700FF303F05B8007F30400594
:10042000B90039083804370436040319182A192A80
:100430001C2ABC01BC0A212A421C1F2A202A212A6C
:10044000192A3C080319252A262A4E2A0130C207F8
:100450000030C33D0030C43D0030C53D451C312A4D
:10046000322A4E2A4208B6004308B7004408B800B2
:100470004508B9000130BA00B937B80CB70CB60C52
:10048000BA0B3C2A3908C5003808C4003708C30035
:100490003608C2000130C6070030C73D4708803A21
:1004A000B60080303602031D572AFF304602031C77
:1004B0005A2A5B2A652A7F304101C5008030C4007A
:1004C0000030C3000030C200902A41014708803A42
:1004D000B60080303602031D6F2A01304602031831
:1004E000722A732A7E2A00304101C5000030C40000
:1004F0000030C3000030C200BB01902A4101460811
:10050000C100FF30C205FF30C3057F30C405003095
:10051000C505411C8C2A8D2A8E2AC4174136C50078
:100520003B08B6003608C5044508B1004408B000D1
:100530004308AF004208AE0008004001C10078083F
:1005400086008701403FFA00413FFB007A088400A3
:100550007B0885001200253A031DAF2AB02A552BCF
:100560007808860087010130810741310318810A2C
:100570004101E801E9010310003003180130400196
:10058000BA00FF304101EA00FF30EB007808860036
:100590008701403F4001C200413FC3004208840040
:1005A000430885001200753A031DD72AD82A4C2B20
:1005B00079088600870101088400850102308107DF
:1005C000003FC400013FC5004208013EFA00003070
:1005D000433DFB007808860087017A08C03F7B080E
:1005E000C13F432B2030C8000130C8024808203EDC
:1005F0008600013087000A30F0000030F100450825
:10060000F3004408F2008731072782317008303E3A
:1006100081000A30F0000030F10040014508F3008D
:100620004408F2008631CB26823171084001C500B2
:100630007008C4004408450403191F2B202B3C2BD1
:100640004808031D242B252BF42A3C2B4808203E68
:100650008600013087000108FA00FB017A08F000EB
:100660007B08F1004108F2008531E8258231013034
:10067000FA007A084001C80720304806031D412BC4
:10068000422B262B6D2B420884004308850000086E
:10069000753A0319F22A4C2B78088600870101303D
:1006A000810741310318810A6D2B78088600870184
:1006B000403FFA00413FFB007A0884007B08850038
:1006C0000008FC00FD017C08F0007D08F1004108F5
:1006D000F2008531E82582314C2B08004101A80049
:1006E00028080319742B752B892BA31F782B792BC2
:1006F000892B2009AA002109AB002209AC0023099B
:10070000AD00AA0A0319AB0A0319AC0A0319AD0A12
:10071000912B2308AD002208AC002108AB00200873
:10072000AA002308220421042004031D982B992BDE
:10073000A22B0030A3000030A2000030A100003046
:10074000A000182C9630A900B02B0130A40024087A
:10075000A9070130AD36AC0CAB0CAA0C890BAA2B47
:10076000FE302D05031DB52BB62BA52BCA2B013052
:10077000A4002408A9070130AA070030AB3D0030CF
:10078000AC3D0030AD3D0130AD36AC0CAB0CAA0C2D
:10079000890BC42BFF302D05031DCF2BD02BB72B7E
:1007A000DA2B0130A9020130AA35AB0DAC0DAD0D2D
:1007B000890BD42BAC1BDD2BDE2BE42B0230290262
:1007C0000318E32BE42BD12B2918E72BE82BF02B74
:1007D000FF30AA05FF30AB057F30AC05FF30AD051B
:1007E0000310A90C2908A400A501A601A70118302F
:1007F000A435A50DA60DA70D890BF82B2408AA0476
:100800002508AB042608AC042708AD042808031902
:100810000A2C0B2C102CA31F0E2C0F2C102CAD17F8
:100820002D08A3002C08A2002B08A1002A08A00074
:10083000080041015708A3005608A2005508A1006E
:100840005408A000003083316E2384314101230815
:10085000B5002208B4002108B3002008B2004130DE
:10086000B1002B30B000CC30AF007730AE0080311B
:100870006220843141013108CB003008CA002F08C2
:10088000C9002E08C80085311225843141014B086A
:100890004201E90041014A084201E80041014908DA
:1008A0004201E700410148084201E6006608E00015
:1008B0006708E1006808E2006908E3000E30E336EB
:1008C000E20CE10CE00C890B5F2CFF306005E400CA
:1008D0003F306105E50000306404EA004030650403
:1008E000EB00FF306605E0003F306705E1000030B7
:1008F0006004EC0040306104ED0000304101AA00CA
:100900002030AB0087316B27843142016D084101F3
:10091000AB0042016C084101AA0087316B2784318A
:1009200042016B084101AB0042016A084101AA0083
:1009300087316B27843108004301901AA02CA12C29
:100940000E2D41012608A700A8012708A0002808AD
:10095000A1000530A2000030A3008F319927843117
:1009600085304101200784001030213D803885000A
:10097000000843018F0041012608A700A8012708AD
:10098000A0002808A1000530A2000030A3008F318C
:100990009927843186304101200784001030213DA1
:1009A0008038850000084301900041012608A70017
:1009B000A8012708A0002808A1000530A2000030E7
:1009C000A3008F31992784318730410120078400AB
:1009D0001030213D8038850000084301920041011C
:1009E0002608A700A8012708A0002808A1000530B4
:1009F000A2000030A3008F31992784318830410153
:100A0000200784001030213D803885000008430114
:100A10008D0090164101A901A90A102D4101A901DB
:100A200029080800031041014A0D4B0DD10051085F
:100A3000031D1B2D1C2D252D0030CB000030CA00BE
:100A40000030C9000030C800822D4808CC00490899
:100A5000CD004A08CE004B08CF001F30CF36CE0C59
:100A6000CD0CCC0C890B2E2D4C08D000CA17FF30B2
:100A7000C805FF30C905FF30CA050030CB059630E8
:100A8000D102D11F442D452D5D2D5108803A973E4E
:100A900003184B2D4C2D4D2D1C2D0130CB36CA0C7F
:100AA000C90CC80C890B4E2D0130CC004C08D10765
:100AB000031D5B2D5C2D4D2D722D20305102031C2A
:100AC000622D632D6D2D1C2D0130C835C90DCA0D49
:100AD000CB0D890B652D0130D1025108031D712DFD
:100AE000722D642D50080319762D772D822DC8099B
:100AF000C909CA09CB09C80A0319C90A0319CA0ACC
:100B00000319CB0A08008F313F2785318B170B174C
:100B10004E011C109C1040011A11C7304101A00069
:100B20000E30A1008D31CE258531DE304101A0008F
:100B30000E30A1008D31D42585314D304101A10009
:100B40009030A2008F31B927853100304101E1009A
:100B50000030E0007530DF003030DE008D31F425EC
:100B6000853100304101AA00AB0087316B27853108
:100B700000304101D2004030D3000030D7000030B7
:100B8000D6007530D5003030D40084311924853139
:100B900000304101AA00AB0087316B278531393025
:100BA0004101A0000630A1008D31DA2585310330E6
:100BB0004101D9000830D8007730890BDD2DD80BE2
:100BC000DD2DD90BDD2D4E011C14E52D8031312892
:100BD00072080319EC2DED2DF22D7208031DF12D75
:100BE000F22DF72D7008803102208531382E7208E1
:100BF000093E86008701160001040319002E012E0C
:100C00001F2E7208093E86008701403FF300413FD6
:100C1000F4007208023E86008701403FF500413F24
:100C2000F6007608803AF7007408803A7702031DD0
:100C30001B2E7308750203181E2E1F2E382E7208E5
:100C4000860087017208023E8400850100080107C2
:100C5000F300730886000130870070088100720875
:100C6000023E860087010130810741310318810A65
:100C7000080040012408250403193F2E402E822E2F
:100C80003B080319442E452E822E3530D00090307B
:100C9000D1002108D3002008D20040308F315B27DB
:100CA00086314030F1000130F2008F3179278631F2
:100CB0001C304001D0009030D1002308D30022081E
:100CC000D20040308F315B2786314030F100013057
:100CD000F2008F317927863164304001D0009030A6
:100CE000D1002508D3002408D20040308F315B2783
:100CF00086314030F1000130F2008F3179278631A2
:100D00004001BB0108004001980199019A011F3080
:100D1000920080309300FB30940007307E01B800D1
:100D20008030C300CB30CE00B901C4011030CF00F9
:100D3000BA01C501D0013730BB00F030C600FF302A
:100D4000D1003F30BC00F030C700FF30D20004308B
:100D50007D01CB0014307E019C000F3095000D30DA
:100D60007D01C50013307E019D0015307D01A2007C
:100D70000A307E01A50014307D01A10009307E01FA
:100D8000A400BD01BE01BF01C801C901CA01D30150
:100D9000D401D5010800F501F601700871040319AA
:100DA000D22ED32E022FF701F70ADF2E0130F035B5
:100DB000F10D890BD72E0130F4007408F707F11FED
:100DC000E22EE32ED62E0130F535F60D890BE42EFA
:100DD00071087302031DEE2E70087202031CF12EBF
:100DE000F22EF72E7008F2027108F33B75140130F1
:100DF000F136F00C890BF82E0130F702031D012F9C
:100E0000022FE32E7608F1007508F0000800700844
:100E1000710403190C2F0D2F362FF501F50A192F28
:100E20000130F035F10D890B112F0130F4007408F9
:100E3000F507F11F1C2F1D2F102F71087302031DC2
:100E4000232F70087202031C262F272F2B2F7008C8
:100E5000F2027108F33B0130F136F00C890B2C2FB4
:100E60000130F502031D352F362F1D2F7308F100B9
:100E70007208F0000800E134073400340034003414
:100E80000034FD340D3400340034B1340E340034F9
:100E900000340034003400340034003400340034B2
:100EA00000340034003400340034003400340034A2
:100EB0000034003400340034003400340034003492
:100EC0000034003400345D340E346C340E3400349D
:100ED00000340034003441012B08AC002A08AD0076
:100EE000A60184319C248731003A0319782F792F89
:100EF000942F40011913AC304101A0000130A10032
:100F00000030A2008F31DC278731AD304101A000D5
:100F10000130A1000030A2008F31DC278731400171
:100F200019178D31C7258731080044010E108F0134
:100F3000900101309100FF308D00FF308C000D08D2
:100F40004001B70044010C084001B60000304101E7
:100F5000A0000030A1008E312A26873100304101E7
:100F6000A0000030A1008E31212687314E011010E3
:100F70001110053044018E0008004101A800A401B1
:100F8000A5012008A200A3012208A6002308A700AB
:100F9000281CCB2FCC2FD02F2608A4072708A53D2F
:100FA0000130A635A70D890BD12F0310A80C2808F6
:100FB000031DDB2FDC2FC82F2508A1002408A0006B
:100FC0000800483042019F0090309D0026309E006E
:100FD00040309B0003309C0000304101A0000030F5
:100FE000A1008E315D26873100304101A000003024
:100FF000A1008E316C2687314001AE01AF0108009F
:101B8A0008000800430190120800700842019A00F8
:101B9A00080041012108E7002008E6000800410189
:101BAA002108E5002008E400080041012108E300BB
:101BBA002008E2000800640080010131890BE12D50
:101BCA000034FE0012001E00FE0BE72D00347734AD
:101BDA00CC342B3441349634003400340034003091
:101BEA004101AA000130AB0087316B278D31080013
:101BFA007E1C012E8D31CA2D4101200842019A0016
:101C0A000800603051018D008F0191010630930068
:101C1A0092010800410121084001B9004101200850
:101C2A004001B80008004E0119100F1043018F013E
:101C3A00900192018D010800410121084001B10083
:101C4A00410120084001B00008004101210840017B
:101C5A00B300410120084001B20008004E010C10F7
:101C6A000B1400304101A0000030A1008E310F2674
:101C7A008E310800F0014E010F1E442E452E4C2EC7
:101C8A0042019E1E492E4A2E4C2EF001F00A70087F
:101C9A0008004101620863040319542E552E5A2E76
:101CAA0063088A0062080A008E314E018C1208000D
:101CBA004101200821040319632E642E6B2E21088A
:101CCA004001AD00410120084001AC00080041017B
:101CDA00200821040319722E732E7A2E210840013E
:101CEA00AB00410120084001AA0008004E01121071
:101CFA0046010C08F2000D08F3007308F10072089F
:101D0A00F000410167088A0066080A008E3108005F
:101D1A004E01921046011008F2001108F3007308F0
:101D2A00F1007208F000410165088A0064080A009F
:101D3A008E310800F3304B019D009C017D309F00DD
:101D4A0003304101E2000030E3004E018C12961686
:101D5A008F304B019E0008007E1CB52E8E313F2E1F
:101D6A004101A0014E010F1EBB2EBC2EC42E420102
:101D7A009E1EC02EC12EC42E4101A001A00A4101FF
:101D8A002008080040013C08031DCC2ECD2ED22E7F
:101D9A001A157108A1007008A0003C080319D62E74
:101DAA00D82E0130D92E0030BC004E011C109C14D4
:101DBA00080040013C03031DE32EE42EF12E1A1104
:101DCA007108A3007008A20020082202A4002108BA
:101DDA00233BA500BB01BB0A4E019C101C14080042
:101DEA00853046018E008F018D018C01C53041017D
:101DFA00A0000D30A1008D31CE258E3144011E0880
:101E0A00FC3901389E004E0112101C14080087305C
:101E1A0046019200930191019001C6304101A00050
:101E2A000D30A1008D31D4258F3144011E08F339BC
:101E3A0004389E004E0192109C1408004001CD0007
:101E4A004A08CF004908CE00322F4E30F8004B081E
:101E5A00F9004D0882319D228F3140014E088400DD
:101E6A004F0885001200031D3B2F3C2F2A2FC90162
:101E7A00CA0108008E3106268F31863183268F31BA
:101E8A008E319F268F318E31F5268F318F310C2777
:101E9A008F318731E1278F318E3118268F31873183
:101EAA0095278F318E3133268F3108004001D600B5
:101EBA005230D5005608D700D901DA01E001E10114
:101ECA005108CA005008C9005530CB0057308F312D
:101EDA0023278F31400159085607D4005408860039
:101EEA0001308700810108008F2F8E313F268F3104
:101EFA00003A0319812F822F7A2F71088400720801
:101F0A0085000008F0008D31CA258F310130F107B4
:101F1A000030F23D71088400720885001200031D2A
:101F2A00972F982F7A2F08004101A401A501201CA0
:101F3A009F2FA02FA42F2208A4072308A53D013014
:101F4A00A235A30D890BA52F0130A136A00C890B50
:101F5A00AA2F20082104031DB32FB42F9C2F250874
:101F6A00A1002408A0000800D12F8E31B1268F319C
:101F7A00003A0319C12FC22FBA2F41012108840048
:101F8A00220885000008A0008D31FD258F3101301F
:101F9A004101A1070030A23D410121088400220825
:101FAA0085001200031DDA2FDB2FBA2F080041012A
:101FBA002008A6002208A5002108A400F92F260857
:101FCA0086008701010843018C004E010F1CEE2F89
:101FDA00EF2FEA2F0F1001304101A3002308A607B3
:101FEA000130A4020030A53B24082504031DFE2F5E
:101FFA00FF2FE42F080018340E34003400349C34C8
:10200A000434C7340D340034003400340034DC3472
:10201A000F34003400340034003400340034003407
:10202A0000340034003400340034003400344334C3
:10203A004334503420345334653463346F346E344B
:10204A0064342034433461347034743475347234F3
:10205A0065343A342034253475340D340A34003466
:10206A00433443345034203446346934723473343C
:10207A0074342034433461347034743475347234B3
:10208A0065343A342034253475340D340A34003436
:10209A00533443344D344134543455342034483461
:1020AA0065346C346C346F342C34203457346F34C8
:1020BA0072346C34643421340D340A3400344334B9
:1020CA0043345034203444346934663466346534D5
:1020DA00723465346E34633465343A3420342534CA
:1020EA0075340D340A34003495340734003400341E
:1020FA0000340034003400342A340E3400340034FE
:10210A0040341A3410343F34003464340034103408
:04211A000134003458
:020000040001F9
:0A000E00EC3F5D3F9F3FFF1FFF3FE7
:00000001FF
