:1000000080314F28080008007E1480314E01161EF2
:100010000A280B2813280C1E0E280F2813288031BD
:10002000032080314D280B1F162817284D28191E34
:100030001A281B2826280F1E1E281F2826284101A3
:100040005B088A005A080A0080314D28991E292829
:100050002A2835288F1E2D282E2835284101590899
:100060008A0058080A0080314D281C1C382839287D
:100070004128121C3C283D2841288831B820803175
:100080004D289C1C442845284D28921C4828492866
:100090004D288831CA2080314D287E1009008031DA
:1000A00051281830840088308500E4308600003004
:1000B0008700083088310A208031F001F101F20117
:1000C000F301F4015F308400003085000D30883189
:1000D00004208031A0308400003085004430883115
:1000E0000420803120308400013085005030883178
:1000F00004208031A03084000130850040308831F8
:10010000042080317E1040018531512D4001B8001E
:100110002F0886008701403FB100413FB2003108FF
:100120008400320885001200253A031D982899287A
:10013000FD2A2F088600870101308107413103180D
:10014000810A4101B801B9010310003003180130E0
:10015000DC00FF30BA00FF30BB0040012F088600F2
:100160008701403FB900413FBA00390884003A088E
:1001700085000008BF00C6280130B9070030BA3D2D
:10018000D4286930BF00D428BF01D4283F08643A7E
:100190000319C1280D3A0319C128053A0319BC28CF
:1001A000193A0319C128C428390884003A0885007F
:1001B0001200643A0319DD28DE281029390884006A
:1001C0003A0885001200693A031DE728E828AE299D
:1001D000102930088600870101088400850102305B
:1001E0008107003FB100013FB2003108BB00320877
:1001F000BC00890D893B8909BD00BE001829300863
:100200008600870101088400850104308107003FD2
:10021000BB00013FBC00023FBD00033FBE001829E8
:100220003F08693A0319E928053A0319FF281829F4
:100230003908013EB10000303A3DB2002F08860077
:1002400087013108C03F3208C13F2030BF00BE1BCC
:100250002A292C2901302D290030B7000130BF0296
:100260003F08203E8600013087000030A3000030A8
:10027000A2000030A1000A30A0003E08A7003D08FF
:10028000A6003C08A5003B08A4008D31E325803181
:1002900040012108AC002008AB008831DC2080310F
:1002A00040012B08303E81000030A3000030A20046
:1002B0000030A1000A30A0003E08A7003D08A600BB
:1002C0003C08A5003B08A4008E31DD2680314001AA
:1002D0002308BE002208BD002108BC002008BB0086
:1002E0003E083D043C043B040319772978297D2905
:1002F0003F08031D7C297D292E293F0803198129E8
:100300008229A7293708031986298729A7290130B7
:10031000BF023F08203E8600013087002D3081005B
:10032000A7293F08203E8600013087000108B10060
:10033000B2013108A0003208A1003808A2008C31B7
:100340004E24803101304001B1003108BF07203018
:100350003F06031DAC29AD299129152B39088400CE
:100360003A0885001200753A031DB729B829632A97
:10037000DD293008860087010108840085010230EC
:100380008107003FB100013FB2003108BB003208D5
:10039000BC00BD01BE01E5293008860087010108C7
:1003A0008400850104308107003FBB00013FBC0091
:1003B000023FBD00033FBE00E5293F08693A03192B
:1003C000B929053A0319CC29E5293908013EB100BC
:1003D00000303A3DB2002F08860087013108C03F47
:1003E0003208C13F5A2A2030BF000130BF023F0807
:1003F000203E8600013087000030A3000030A200BC
:100400000030A1000A30A0003E08A7003D08A60069
:100410003C08A5003B08A4008B31B3238031400188
:100420002008303E81000030A3000030A2000030E0
:10043000A1000A30A0003E08A7003D08A6003C0825
:10044000A5003B08A4008C31A12480314001230881
:10045000BE002208BD002108BC002008BB003E08E9
:100460003D043C043B040319362A372A532A3F082B
:10047000031D3B2A3C2AF529532A3F08203E8600CB
:10048000013087000108B100B2013108A000320834
:10049000A1003808A2008C314E2480310130400187
:1004A000B1003108BF0720303F06031D582A592AE2
:1004B0003D2A152B390884003A0885000008753A52
:1004C0000319F329632AB7012F0886008701403FEB
:1004D000B100413FB20031088400320885001200AB
:1004E000733A031D742A752A802A2F088600870113
:1004F0000130810741310318810AB701B70AC22AC6
:100500002F0886008701403FB100413FB20031080B
:1005100084003208850012006C3A031D902A912A4B
:10052000C22A2F0886008701403FB100413FB20038
:1005300001303107840032080318320A85001200A6
:100540006C3A031DA42AA52AC22A2F088600870117
:10055000403FB100413FB200023031078400320811
:100560000318320A85001200733A031DB82AB92A0B
:10057000C22A2F0886008701033081074131031802
:10058000810A7D2A37080319C62AC72AF32A3008A8
:100590008600870101088400850102308107003F41
:1005A000B500013FB600E92A350886003608870005
:1005B0000108B100B2013108A0003208A1003808DA
:1005C000A2008C314E24803101304001B50700304B
:1005D000B63D35088600360887000108031DF12A5C
:1005E000F22AD42A152B40012F08860087010130FA
:1005F000810741310318810A152B2F0886008701D6
:10060000403FB100413FB20031088400320885000C
:100610000008B300B4013308A0003408A100380872
:10062000A2008C314E248031F32A080040013108A9
:100630008039BB003135C100B01F1F2B202B212B6F
:10064000411441080319252B262B352B410A031D84
:100650002A2B2B2B332B0030B1000030B0000030A0
:10066000AF000030AE00B0173D2B0030B1000030BD
:10067000B0000030AF000030AE0035088039B60061
:100680003608BB063535BC00B41F472B482B492B19
:100690003C143C0803194D2B4E2B5D2B3C0A031DCB
:1006A000522B532B5B2B0030B5000030B4000030D0
:1006B000B3000030B200B417652B0030B500003035
:1006C000B4000030B3000030B2003C080319692BBD
:1006D0006A2B6F2B4108031D6E2B6F2B782B00307C
:1006E000B1000030B0000030AF000030AE00502D3F
:1006F0002E08A00034088A313D22833140012108B0
:10070000C7002008C6004608B600B701B801B90105
:100710003908C0003808BF003708BE003608BD00E1
:100720004708B600B701B801B9013908C500380853
:10073000C4003708C3003608C2002F08A0003308E1
:100740008A313D22833140012108C7002008C600BC
:100750004608B600B701B801B9013608BD07370829
:10076000BE3D3808BF3D3908C03D4708B600B70157
:10077000B801B9013608C2073708C33D3808C43D7F
:100780003908C53D3008A00032088A313D22833146
:1007900040012108C7002008C6004608B600B7017E
:1007A000B801B9013608BD073708BE3D3808BF3D5E
:1007B0003908C03D4708B600B701B801B90136088D
:1007C000C2073708C33D3808C43D3908C53D083065
:1007D000BD35BE0DBF0DC00D890BE82B2F08A00045
:1007E00032088A313D22833140012108C7002008A8
:1007F000C6004608BD074708BE3D0030BF3DC03DAE
:100800002E08A00033088A313D228331400121089F
:10081000C7002008C6004608BD074708BE3D003097
:10082000BF3DC03D0830BD35BE0DBF0DC00D890BAD
:10083000132C2E08A00032088A313D22833140015A
:100840002108C7002008C6004608BD074708BE3D6E
:100850000030BF3DC03D2F08A00034088A313D2242
:10086000833140012108C7002008C6004608C2079E
:100870004708C33D0030C43DC53D3008A0003308E3
:100880008A313D22833140012108C7002008C6007B
:100890004608C2074708C33D0030C43DC53D300887
:1008A000A00034088A313D22833140012108C7006D
:1008B0002008C6004608B6004708B700B801B901CD
:1008C0000830B635B70DB80DB90D890B612C360857
:1008D000C2073708C33D3808C43D3908C53D3D0847
:1008E000B6003E08B7003F08B8004008B90018300D
:1008F000B936B80CB70CB60C890B782C3608C20781
:100900003708C33D3808C43D3908C53D0830BD35FA
:10091000BE0DBF0DC00D890B872C41083C07B600EA
:10092000B701B70D3608823EC600FF30373DC7001D
:10093000B02C0130C235C30DC40DC50D890B9A2CE6
:10094000C01FA32CA42CA52C42140130BD35BE0D14
:10095000BF0DC00D890BA62CFF30C607FF30C73D69
:10096000C41FB32CB42C992CBC01C01FB82CB92CBB
:10097000D52CFF303D05B600FF303E05B700FF30F7
:100980003F05B8007F304005B90039083804370406
:1009900036040319CC2CCD2CD02CBC01BC0AD52C90
:1009A000421CD32CD42CD52CCD2C3C080319D92C8B
:1009B000DA2C022D0130C2070030C33D0030C43DA7
:1009C0000030C53D451CE52CE62C022D4208B60042
:1009D0004308B7004408B8004508B9000130BA0020
:1009E000B937B80CB70CB60CBA0BF02C3908C500E7
:1009F0003808C4003708C3003608C2000130C607F3
:100A00000030C73D4708803AB60080303602031DEB
:100A10000B2DFF304602031C0E2D0F2D192D7F309C
:100A20004001C5008030C4000030C3000030C20067
:100A3000442D40014708803AB60080303602031D3D
:100A4000232D013046020318262D272D322D00308C
:100A50004001C5000030C4000030C3000030C200B7
:100A6000BB01442D40014608C100FF30C205FF30E4
:100A7000C3057F30C4050030C505411C402D412D04
:100A8000422DC4174136C5003B08B6003608C504E0
:100A90004508B1004408B0004308AF004208AE006A
:100AA000080089312F2185318B170B177D304001CC
:100AB000A0000830A100883129208531EE304001A6
:100AC000A0000830A10088313220853196304001E5
:100AD000A2009030A3008931F62185310030410118
:100AE000EB000230EA002230E900E030E800883113
:100AF0002020853100304001AA00AB008A31D3228A
:100B0000853100304001D2004030D30041016B08F4
:100B10004001D70041016A084001D600410169083F
:100B20004001D500410168084001D4008F316D2794
:100B3000853100304001AA00AB008A31D3228531D3
:100B40004E011C109C10893164218531400121081F
:100B50004101BD00400120084101BC00AD30400111
:100B6000C7009030C80041013D084001CA00410162
:100B70003C084001C90050308931B82185315030DE
:100B80004001A2000130A3008931F6218531863170
:100B900055268531400166080319CF2DD02DC72D6C
:100BA00065080319D42DD52DC72D62086002031DD9
:100BB000DB2D61085F020318DE2DDF2DF72D5F08A6
:100BC00061024101BE0040016008623B4101BF007B
:100BD00002305F3E86008701403F40015F024101D5
:100BE000BE00413F4001603B4101BF00082EEC3098
:100BF000A2009030A3008931F621853140015F08C1
:100C000061024101BE0040016008623B4101BF003A
:100C10007E304001C7009030C8006008CA005F08FD
:100C2000C90050308931B821853150304001A200CF
:100C30000130A3008931F621853165304001C700BC
:100C40009030C8006208CA006108C900503089317C
:100C5000B821853150304001A2000130A300893114
:100C6000F6218531C4304001C7009030C8004101F1
:100C70003F084001CA0041013E084001C900503010
:100C80008931B821853150304001A2000130A300E4
:100C90008931F62185314001E601E501DF01E001FE
:100CA000E101E201C72D80314F288831682086316B
:100CB000003A03195C2E5D2E442F40016408803AEF
:100CC000DE0080305E02031D672E3F306302031892
:100CD0006A2E6B2E242F8A31852286314001DE0058
:100CE0006308A03E8600013087005E08810063082B
:100CF000A03E8600013087000A300106031D812EC8
:100D0000822E1F2F6308A03E8600013087008101DC
:100D10002830A0009130A100A0308A31FC22863119
:100D2000400120082104031D962E972EB22E0E306E
:100D3000C7009130C80050308931B8218631503019
:100D40004001A2000130A3008931F6218631400123
:100D5000DF01E001E101E2014101BE01BF014E01FD
:100D60001C14102FFF30C7009030C800A030C900FD
:100D70000130CA0050308931B821863150304001ED
:100D8000A2000130A3008931F6218631A0308E31D6
:100D90005F268631400126084101E800400127080E
:100DA0004101E900890D893B8909EA00EB00003027
:100DB0004001D2004030D30041016B084001D70010
:100DC00041016A084001D600410169084001D5008F
:100DD000410168084001D4008F316D278631D93038
:100DE0004001C7009030C80041016B084001CC00B1
:100DF00041016A084001CB00410169084001CA0075
:100E0000410168084001C90050308931B82186315C
:100E100050304001A2000130A3008931F621863113
:100E20004001E301E4010030A000A1004030A20035
:100E30000030A300A030893180218631442F013059
:100E4000E3070030E43D442F4C304001C7009030B0
:100E5000C80050308931B821863150304001A2009D
:100E60000130A3008931F621863100304001A00015
:100E7000A1004030A2000030A300A03089318021C1
:100E800086314001E301E40108004001A800280880
:100E900003194B2F4C2F602FA31F4F2F502F602F64
:100EA0002009AA002109AB002209AC002309AD00EA
:100EB000AA0A0319AB0A0319AC0A0319AD0A682F71
:100EC0002308AD002208AC002108AB002008AA00CE
:100ED0002308220421042004031D6F2F702F792F73
:100EE0000030A3000030A2000030A1000030A000BC
:100EF000EF2F9630A900872F0130A4002408A907FE
:100F00000130AD36AC0CAB0CAA0C890B812FFE3036
:100F10002D05031D8C2F8D2F7C2FA12F0130A400B8
:100F20002408A9070130AA070030AB3D0030AC3DD2
:100F30000030AD3D0130AD36AC0CAB0CAA0C890BCA
:100F40009B2FFF302D05031DA62FA72F8E2FB12F0E
:100F50000130A9020130AA35AB0DAC0DAD0D890BE6
:100F6000AB2FAC1BB42FB52FBB2F023029020318B7
:100F7000BA2FBB2FA82F2918BE2FBF2FC72FFF3086
:100F8000AA05FF30AB057F30AC05FF30AD0503107F
:100F9000A90C2908A400A501A601A7011830A435B1
:100FA000A50DA60DA70D890BCF2F2408AA0425088F
:100FB000AB042608AC042708AD0428080319E12F68
:100FC000E22FE72FA31FE52FE62FE72FAD172D0800
:100FD000A3002C08A2002B08A1002A08A0000800EA
:100FE0004001200821040319F62FF72FFE2F2108B6
:100FF0004101DB00400120084101DA00080008003F
:1010000042011D121D160800640080010131890B88
:1010100005280034FE0012001E00FE0B0B280034D1
:101020007208031D14281628013017280030080004
:101030007734CC342B3441349634003400340034CB
:1010400000304001AA000130AB008A31D322883140
:101050000800400121084101EF0040012008410142
:10106000EE000800400121084101ED004001200888
:101070004101EC000800603051018D008F019101A9
:101080000630930092010800400121084101D70079
:10109000400120084101D60008004E0119100F1030
:1010A00043018F01900192018D0108004001210848
:1010B0004101CF00400120084101CE00080040015D
:1010C00021084101D100400120084101D000080061
:1010D00040016B08031D6D286F2801307028003017
:1010E00008004E010C100B1400304001A00000302D
:1010F000A100883144208831080076084001E000D2
:101100007508DF004E011C109C140130F7007708B1
:101110004101DF070800400120082104031991283C
:101120009228992821084101CB0040012008410163
:10113000CA0008004001200821040319A028A128A2
:10114000A82821084101C900400120084101C80028
:1011500008004001200821040319AF28B028B7284F
:1011600021084101D900400120084101D8000800B0
:101170004E01121046010C08F8000D08F90079081C
:10118000F6007808F50041016F088A006E080A0031
:10119000883108004E01921046011008F80011082D
:1011A000F9007908F6007808F50041016D088A0019
:1011B0006C080A00883108004001AC1BE028E128D7
:1011C000E228ED282B09AD002C09AE00AD0A031969
:1011D000AE0A2D08AB002E08AC00080076084001CE
:1011E000E2007508E1004E019C104001E501E50AAE
:1011F0000130F70077084101DE074001E601E60A09
:101200000800853046018E008F018D018C01FB3076
:101210004001A0001730A100883129208931440104
:101220001E08FC3901389E004E0112101C140800E3
:10123000843046019200930191019001FC304001FD
:10124000A0001730A10088313220893144011E08E6
:10125000F33904389E004E0192109C140800883126
:101260003B2089318B316C238931893101218931CE
:101270008931182189318B312F23893188314D20D3
:1012800089318A31AB228931883171208931080056
:101290000830720203184D294E2961297308483E0F
:1012A000860001308700010842019A007308013E60
:1012B0000739F6007608F3000130F5007508F207EB
:1012C00063294E011912080044010C084001AA00CC
:1012D00044010D084001A9002A08A200A301290821
:1012E000A400A5012408A500A40122082404A70045
:1012F00023082504A8002808A1002708A00008004A
:101300004001A6002608A5008F2925088600013087
:101310008700200881000130A4002408A5070130BF
:10132000A2020030A33B220A031D9A29230A031DAF
:101330009A299B29852908004001C4004108C6005C
:101340004008C500AB294530AF004208B000440852
:101350008031862089314001450884004608850097
:101360001200031DB429B529A329C001C101080039
:101370004001CF004930CE004F08D000D201D30148
:10138000D901DA014808C1004708C0004E30C20048
:10139000503089319C218931400152084F07CD00DE
:1013A0004D08860001308700810108004001A4013A
:1013B000A501201CDC29DD29E1292208A407230836
:1013C000A53D0130A235A30D890BE2290130A136DC
:1013D000A00C890BE72920082104031DF029F1291D
:1013E000D9292508A1002408A00008000E2A883168
:1013F00010208931003A0319FE29FF29F7294001FD
:1014000022088400230885000008A0008A31612298
:10141000893101304001A2070030A33D400122087C
:101420008400230885001200031D172A182AF729B3
:10143000080040012008A6002208A5002108A400F9
:10144000362A260886008701010843018C004E01D8
:101450000F1C2B2A2C2A272A0F1001304001A30031
:101460002308A6070130A4020030A53B2408250468
:10147000031D3B2A3C2A212A08004001A800A401A0
:10148000A5012008A200A3012208A6002308A700A6
:10149000281C4B2A4C2A502A2608A4072708A53DB9
:1014A0000130A635A70D890B512A0310A80C280876
:1014B000031D5B2A5C2A482A2508A1002408A000F5
:1014C00008004E01191A652A662A6B2A4001200875
:1014D00042019A00822A720803196F2A702A822A0E
:1014E0007408483E860001308700400120088100D2
:1014F0007408013E0739A1002108F4004E011912B9
:101500000130F2024E01191608007008403E8600B4
:101510000130870001084001A1007008013E073931
:10152000A0002008F0007035A03E86008701403FF3
:101530004101CC00413FCD004E01991240016B08A2
:101540000319A32AA42AA62A0130EB024E019916F8
:1015500040012108080044010E108F019001023063
:101560009100FF308D00FE308C000D084101D50048
:1015700044010C084101D40000304001A0000030BB
:10158000A10088315F208A3100304001A000003086
:10159000A100883156208A314E01101011100530FB
:1015A00044018E00080040012B08AC002A08AD0061
:1015B000A6018D316D258A31003A0319E02AE12A0E
:1015C000FB2A400119132C30A0000130A10000308B
:1015D000A2008A3119228A312D304001A000013049
:1015E000A1000030A2008A3119228A314001191766
:1015F0009731FD278A3108004001A300072B0130F5
:10160000A2002208A3070130A0070030A13D200856
:101610008400210885000008A2002308860001300C
:10162000870001082206031D162B172B202B2308E9
:101630008600013087000108031D1F2B202BFF2A85
:1016400023088600013087002008840021088500D7
:1016500000080102A000A101031CA10308004E0123
:101660009912FE304001A0000B30A1008831A92062
:101670008B314E01191248304001A0000930A10001
:101680008731F0278B31483042019F0090309D0018
:1016900026309E0040309B0003309C000230400109
:1016A000A0000030A10088318B208B310030400138
:1016B000A0000830A10088319A208B314101CC0173
:1016C000CD01F401F3010830F200F101F001400115
:1016D000EB014E01991608004001980199019A0109
:1016E0001F30920080309300FF30940007307E015D
:1016F000B8008030C300CF30CE00B901C401CF01A3
:10170000BA01C501D0013730BB00F030C600FF3050
:10171000D1003F30BC00F030C700FF30D2000430B1
:101720007D01CB0014307E019C000F3095000D3000
:101730007D01C50013307E019D0015307D01A200A2
:101740000A307E01A50014307D01A10009307E0120
:10175000A400BD01BE01BF01C801C901CA01D30176
:10176000D401D501080040012308220421042004EB
:101770000319BB2BBC2BF52BA901A90ACA2B0130DD
:10178000A035A10DA20DA30D890BC02B0130A8001F
:101790002808A907A31FCD2BCE2BBF2B2308270278
:1017A000031DDC2B22082602031DDC2B2108250249
:1017B000031DDC2B20082402031CDF2BE02BE82B6D
:1017C0002008A4022108A53B2208A63B2308A73B2A
:1017D0000130A336A20CA10CA00C890BE92B01301F
:1017E000A902031DF42BF52BCE2B2708A3002608F6
:1017F000A2002508A1002408A00008007135A03E21
:10180000860087010030C03FC13F42019D1C092C6A
:101810000A2C1B2C7135A03E860087010115410161
:10182000480849040319152C162C1B2C49088A005A
:1018300048080A008C3142011D1D1F2C202C312C20
:101840007135A03E86008701811441014A084B048E
:1018500003192B2C2C2C312C4B088A004A080A0027
:101860008C3142011908F6007108013E0739F70072
:1018700077087006031D3D2C3E2C3F2C4D2C710823
:10188000403E860001308700760881007708F1002D
:101890000130F50075084001EB07080040012208FF
:1018A0000319532C542C592C2208031D582C592C45
:1018B0005E2C20088731FF278C31A02C2208093E9E
:1018C00086008701160001040319672C682C862CFA
:1018D0002208093E86008701403FA300413FA40043
:1018E0002208023E86008701403FA500413FA60036
:1018F0002608803AA7002408803A2702031D822C7C
:10190000230825020318852C862CA02C40012208D0
:10191000860087012208023E840085010008010735
:10192000A3002308860001308700200881002208D8
:10193000023E860087010130810741310318810A88
:10194000080000304001AC000030AB000030AA00BD
:101950000030A90023082204210420040319B12C1B
:10196000B22CF32CAD01AD0AC02C0130A035A10D75
:10197000A20DA30D890BB62C0130A8002808AD07D5
:10198000A31FC32CC42CB52C0130A935AA0DAB0D57
:10199000AC0D890BC52C23082702031DD92C220866
:1019A0002602031DD92C21082502031DD92C20084D
:1019B0002402031CDC2CDD2CE62C2008A4022108C8
:1019C000A53B2208A63B2308A73B29140130A336D8
:1019D000A20CA10CA00C890BE72C0130AD02031D59
:1019E000F22CF32CC42C2C08A3002B08A2002A08EC
:1019F000A1002908A0000800031040014A0D4B0D6A
:101A0000D1005108031D052D062D0F2D0030CB00F0
:101A10000030CA000030C9000030C8006C2D4808F2
:101A2000CC004908CD004A08CE004B08CF001F303B
:101A3000CF36CE0CCD0CCC0C890B182D4C08D00019
:101A4000CA17FF30C805FF30C905FF30CA0500308E
:101A5000CB059630D102D11F2E2D2F2D472D5108A9
:101A6000803A973E0318352D362D372D062D01303F
:101A7000CB36CA0CC90CC80C890B382D0130CC00F0
:101A80004C08D107031D452D462D372D5C2D2030E8
:101A90005102031C4C2D4D2D572D062D0130C835FC
:101AA000C90DCA0DCB0D890B4F2D0130D102510844
:101AB000031D5B2D5C2D4E2D50080319602D612DEB
:101AC0006C2DC809C909CA09CB09C80A0319C90A72
:101AD0000319CA0A0319CB0A08004301901A712D91
:101AE000722DDF2D40012608A700A8012708A000BD
:101AF0002808A1000530A2000030A3008931D621BA
:101B00008D3133304001200784001130213D803871
:101B10008500000843018F0040012608A700A801A6
:101B20002708A0002808A1000530A2000030A3006B
:101B30008931D6218D3134304001200784001130A5
:101B4000213D8038850000084301900040012608AF
:101B5000A700A8012708A0002808A1000530A200BE
:101B60000030A3008931D6218D3135304001200766
:101B700084001130213D8038850000084301920027
:101B800040012608A700A8012708A0002808A100F6
:101B90000530A2000030A3008931D6218D313630C6
:101BA0004001200784001130213D80388500000865
:101BB00043018D0090164001A901A90AE12D4001C1
:101BC000A901290808004001AA01A71FE82DE92D55
:101BD000F62DA409A509A609A709A40A0319A50AAF
:101BE0000319A60A0319A70AAA01AA0AA31FF92D15
:101BF000FA2D052EA009A109A209A309A00A03191B
:101C0000A10A0319A20A0319A30A23082204210422
:101C1000200403190C2E0D2E462EA901A90A1B2EF5
:101C20000130A035A10DA20DA30D890B112E01309D
:101C3000A8002808A907A31F1E2E1F2E102E230858
:101C40002702031D2D2E22082602031D2D2E2108FA
:101C50002502031D2D2E20082402031C302E312EB8
:101C6000392E2008A4022108A53B2208A63B230800
:101C7000A73B0130A336A20CA10CA00C890B3A2E75
:101C80000130A902031D452E462E1F2E2A080319D6
:101C90004A2E4B2E562EA409A509A609A709A40A67
:101CA0000319A50A0319A60A0319A70A2708A300FE
:101CB0002608A2002508A1002408A0000800400171
:101CC000AD00AB01AC01AA01692E0130A8002808C3
:101CD000AD072D088600013087002030010603196A
:101CE000722E732E652E2D08860001308700F73086
:101CF0000107A80005302802031C7F2E802E652EC8
:101D00002D088600013087002D300106031D892E25
:101D10008A2E912EAA01AA0A0130A8002808AD0730
:101D2000BA2E2D088600013087002B300106031DD6
:101D30009A2E9B2EBA2E8C2E2D08860001308700FD
:101D40002C08A1002B08A0000A30A2000030A3003C
:101D50008931D6218E3140012108A90001082002D5
:101D6000A800031CA9032808303EAB000030293D21
:101D7000AC008C2E2D08860001308700D030010782
:101D8000A8000A302802031CC62EC72E9C2E2A0843
:101D9000031DCB2ECC2ED82E2B09A8002C09A90070
:101DA000A80A0319A90A2808A6002908A700DC2EFA
:101DB0002C08A7002B08A60008004001AA01A31FB9
:101DC000E22EE32EF02EA009A109A209A309A00A80
:101DD0000319A10A0319A20A0319A30AAA01AA0A4C
:101DE000A71FF32EF42E032FA409A509A609A709FE
:101DF000A40A0319A50A0319A60A0319A70A0130A0
:101E0000A8002808AA060030AE000030AD0000305F
:101E1000AC000030AB002308220421042004031985
:101E2000122F132F542FA901A90A212F0130A035F9
:101E3000A10DA20DA30D890B172F0130A8002808B2
:101E4000A907A31F242F252F162F0130AB35AC0D6A
:101E5000AD0DAE0D890B262F23082702031D3A2F47
:101E600022082602031D3A2F21082502031D3A2FBE
:101E700020082402031C3D2F3E2F472F2008A402D8
:101E80002108A53B2208A63B2308A73B2B140130C1
:101E9000A336A20CA10CA00C890B482F0130A9027B
:101EA000031D532F542F252F2A080319582F592F5C
:101EB000642FAB09AC09AD09AE09AB0A0319AC0A32
:101EC0000319AD0A0319AE0A2E08A3002D08A200BB
:101ED0002C08A1002B08A000080040015708A3000F
:101EE0005608A2005508A1005408A0000030873110
:101EF00045278F3140012308B5002208B40021088E
:101F0000B3002008B2004130B1002B30B000CC301B
:101F1000AF007730AE00833116238F314001310896
:101F2000CB003008CA002F08C9002E08C8008C3129
:101F3000FC248F3140014B084301E30040014A0873
:101F40004301E200400149084301E1004001480823
:101F50004301E00060084001D800430161084001EE
:101F6000D900430162084001DA00430163084001DF
:101F7000DB000E30DB36DA0CD90CD80C890BBA2F0B
:101F8000FF305805DC003F305905DD0000305C04AF
:101F90004301E400403040015D044301E500FF30AF
:101FA00060054001D8003F30430161054001D90080
:101FB000003058044301E600403040015904430119
:101FC000E70000304001AA002030AB008A31D32264
:101FD0008F31430167084001AB00430166084001AF
:101FE000AA008A31D3228F31430165084001AB003A
:101FF000430164084001AA008A31D3228F310800CE
:102000002F340B340034003485340A3461340A34FC
:102010006834083410340834003400340034003498
:102020000034003400340034003400340034003410
:102030000034003400340034003400340034003400
:1020400000340034F0340734A93408340034003448
:102050008B3408349A3408340034003400340034AB
:102060004D340834003400346D340D34FD341734ED
:10207000003400340034003419340A34003400349D
:1020800000340034003400340034003400340034B0
:1020900000340034003400340D340A3445347834CC
:1020A00063346534653464346534643420344234D4
:1020B000753466346634653472342034533469348C
:1020C0007A3465340D340A340034433443345034A4
:1020D00020345334653463346F346E3464342034C4
:1020E00043346134703474347534723465343A3442
:1020F0002034253475340D340A34003443344334E9
:102100005034203446346934723473347434203497
:1021100043346134703474347534723465343A3411
:102120002034253475340D340A34003453344334A8
:102130004D344134543455342034483465346C348F
:102140006C346F342C34203457346F3472346C3424
:10215000643421340D340A340034543469346D3419
:1021600065347234203469346E3469347434203404
:10217000763461346C34753465343A342034253423
:1021800075340D340A34003443344334503420342D
:1021900044346934663466346534723465346E347C
:1021A000633465343A342034253475340D340A34BC
:1021B0000034463472346534633420347334653407
:1021C0007434203474346F343A34203425346C340D
:1021D00064340D340A3400344F3476346534723448
:1021E00066346C346F34773420344434653474345A
:1021F000653463347434653464340A3400345234DE
:102200006534633469346234693464346F343A3425
:102210002034253473340D340A34003443344334C9
:102220005034203465346E34613462346C34653437
:1022300064340D340A340034AB340A3400340034CE
:1022400000340034003400345F3408340034003487
:102250004334433450345F3445346E346134623433
:102260006C346534003440341A3410343F34003454
:0A22700064340034103401340034EB
:0A2FF60008000800430190120800D3
:020000040001F9
:0A000E00EC3F5D3F9F3FFF1FFF3FE7
:00000001FF
