:1000000080313728080008007E1480314E01161E0A
:100010000A280B2813280C1E0E280F2813288031BD
:100020000320803135280B1F162817283528191E64
:100030001A281B2826280F1E1E281F2826284101A3
:100040004D088A004C080A0080313528991E29285D
:100050002A2835288F1E2D282E28352841014B08A7
:100060008A004A080A00803135287E100900803154
:100070003928C63084008B308500CE3086000030B1
:10008000870008308B31B8238031F801F901FA017B
:100090005B3084000030850010308B31B22380311A
:1000A000A0308400003085002E308B31B2238031A7
:1000B000203084000130850040308B31B223803104
:1000C000A03084000130850040308B31B223803174
:1000D0007E1040018E312D2E40012D088039B70051
:1000E0002D35BD00AC1F7528762877283D143D08B6
:1000F00003197B287C288B283D0A031D8028812832
:1001000089280030AD000030AC000030AB0000307A
:10011000AA00AC1793280030AD000030AC000030CE
:10012000AB000030AA0031088039B2003208B706AF
:100130003135B800B01F9D289E289F2838143808F4
:100140000319A328A428B328380A031DA828A9281E
:10015000B1280030B1000030B0000030AF000030F6
:10016000AE00B017BB280030B1000030B000003046
:10017000AF000030AE0038080319BF28C028C528DA
:100180003D08031DC428C528CE280030AD0000302E
:10019000AC000030AB000030AA00A62A2A08F30009
:1001A00030088D316D25803174084001C30073081B
:1001B000C2004208B200B301B401B5013508BC0069
:1001C0003408BB003308BA003208B9004308B20053
:1001D000B301B401B5013508C1003408C0003308CB
:1001E000BF003208BE002B08F3002F088D316D25AB
:1001F000803174084001C3007308C2004208B20095
:10020000B301B401B5013208B9073308BA3D340867
:10021000BB3D3508BC3D4308B200B301B401B50194
:100220003208BE073308BF3D3408C03D3508C13D24
:100230002C08F3002E088D316D25803174084001A3
:10024000C3007308C2004208B200B301B401B50193
:100250003208B9073308BA3D3408BB3D3508BC3D08
:100260004308B200B301B401B5013208BE07330838
:10027000BF3D3408C03D3508C13D0830B935BA0D21
:10028000BB0DBC0D890B3E292B08F3002E088D31C8
:100290006D25803174084001C3007308C200420814
:1002A000B9074308BA3D0030BB3DBC3D2A08F30006
:1002B0002F088D316D25803174084001C30073080B
:1002C000C2004208B9074308BA3D0030BB3DBC3DFF
:1002D0000830B935BA0DBB0DBC0D890B69292A0848
:1002E000F3002E088D316D25803174084001C30064
:1002F0007308C2004208B9074308BA3D0030BB3D4D
:10030000BC3D2B08F30030088D316D258031740819
:100310004001C3007308C2004208BE074308BF3D46
:100320000030C03DC13D2C08F3002F088D316D25F4
:10033000803174084001C3007308C2004208BE0740
:100340004308BF3D0030C03DC13D2C08F3003008DC
:100350008D316D25803174084001C3007308C200DF
:100360004208B2004308B300B401B5010830B23509
:10037000B30DB40DB50D890BB7293208BE0733088C
:10038000BF3D3408C03D3508C13D3908B2003A08C8
:10039000B3003B08B4003C08B5001830B536B40CC7
:1003A000B30CB20C890BCE293208BE073308BF3D0F
:1003B0003408C03D3508C13D0830B935BA0DBB0D14
:1003C000BC0D890BDD293D083807B200B301B30D20
:1003D0003208823EC200FF30333DC300062A01309E
:1003E000BE35BF0DC00DC10D890BF029BC1FF92909
:1003F000FA29FB293E140130B935BA0DBB0DBC0DED
:10040000890BFC29FF30C207FF30C33DC01F092AFA
:100410000A2AEF29B801BC1F0E2A0F2A2B2AFF3007
:100420003905B200FF303A05B300FF303B05B40098
:100430007F303C05B5003508340433043204031919
:10044000222A232A262AB801B80A2B2A3E1C292A46
:100450002A2A2B2A232A380803192F2A302A582A15
:100460000130BE070030BF3D0030C03D0030C13D0F
:10047000411C3B2A3C2A582A3E08B2003F08B300E0
:100480004008B4004108B5000130B600B537B40CDF
:10049000B30CB20CB60B462A3508C1003408C000B4
:1004A0003308BF003208BE000130C2070030C33D30
:1004B0004308803AB20080303202031D612AFF30C7
:1004C0004202031C642A652A6F2A7F304001C10062
:1004D0008030C0000030BF000030BE009A2A4001CA
:1004E0004308803AB20080303202031D792A01307D
:1004F000420203187C2A7D2A882A00304001C1006C
:100500000030C0000030BF000030BE00B7019A2AA2
:1005100040014208BD00FF30BE05FF30BF057F30FF
:10052000C0050030C1053D1C962A972A982AC0179D
:100530003D36C1003708B2003208C1044108AD00A1
:100540004008AC003F08AB003E08AA00080040018C
:10055000B7002E0886008701403FB000413FB10040
:1005600030088400310885001200253A031DB92A9D
:10057000BA2A682C2E088600870101308107413194
:100580000318810A4101C001C101031000300318A2
:1005900001304001E300FF304101C200FF30C300E1
:1005A00040012E0886008701403FB800413FB90056
:1005B00038088400390885000008BE00E92A0130A7
:1005C000B8070030B93DF42A6930BE00F42ABE01F4
:1005D000F42A3E08643A0319E42A0D3A0319E42A7E
:1005E000053A0319DF2AE72A38088400390885000C
:1005F0001200643A0319FD2AFE2A302B38088400C1
:10060000390885001200693A031D072B082BCE2BF1
:10061000302B2F08860087010108840085010230F5
:100620008107003FB000013FB1003008BA00310837
:10063000BB00890D893B8909BC00BD00382B2F0800
:100640008600870101088400850104308107003F8E
:10065000BA00013FBB00023FBC00033FBD00382B86
:100660003E08693A0319092B053A03191F2B382B49
:100670003808013EB0000030393DB1002E08860038
:1006800087013008C03F3108C13F2030BE00BD1B8C
:100690004A2B4C2B01304D2B0030B6000130BE02EE
:1006A0003E08203E8600013087000030A300003065
:1006B000A2000030A1000A30A0003D08A7003C08BD
:1006C000A6003B08A5003A08A4008F318427823198
:1006D00040012108A9002008A8008C313D24823166
:1006E00040012808303E81000030A3000030A20005
:1006F0000030A1000A30A0003D08A7003C08A60079
:100700003B08A5003A08A40086317B2682314001CF
:100710002308BD002208BC002108BB002008BA0045
:100720003D083C043B043A040319972B982B9D2B5E
:100730003E08031D9C2B9D2B4E2B3E080319A12B1D
:10074000A22BC72B36080319A62BA72BC72B0130CA
:10075000BE023E08203E8600013087002D30810019
:10076000C72B3E08203E8600013087000108B000FC
:10077000B1013008F3003108F4003708F5008E317C
:10078000C026823101304001B0003008BE07203061
:100790003E06031DCC2BCD2BB12B802CB6012E0891
:1007A00086008701403FB000413FB100300884001F
:1007B000310885001200733A031DDF2BE02BEB2B71
:1007C0002E08860087010130810741310318810A14
:1007D000B601B60A2D2C2E0886008701403FB000D6
:1007E000413FB100300884003108850012006C3AA6
:1007F000031DFB2BFC2B2D2C2E0886008701403F70
:10080000B000413FB10001303007840031080318C7
:10081000310A850012006C3A031D0F2C102C2D2C70
:100820002E0886008701403FB000413FB1000230F2
:100830003007840031080318310A85001200733A2A
:10084000031D232C242C2D2C2E0886008701033019
:10085000810741310318810AE82B36080319312C2E
:10086000322C5E2C2F088600870101088400850148
:1008700002308107003FB400013FB500542C34081A
:100880008600350887000108B000B1013008F30088
:100890003108F4003708F5008E31C026823101306E
:1008A0004001B4070030B53D3408860035088700A4
:1008B0000108031D5C2C5D2C3F2C802C40012E0870
:1008C000860087010130810741310318810A802C9D
:1008D0002E0886008701403FB000413FB10030083C
:1008E0008400310885000008B200B3013208F3002B
:1008F0003308F4003708F5008E31C02682315E2CB3
:1009000008008B31E9238431003A0319882C892CA3
:100910003C2D40015C08803ADA0080305A02031D09
:10092000932C3F305B020318962C972C1E2D8D3193
:10093000262584314001DA005B08A03E86000130A4
:1009400087005A0881005B08A03E860001308700BE
:100950000A300106031DAD2CAE2C192D9930C600AE
:100960009030C700A030C8000130C90040308C3141
:10097000A42484314030F5000130F6008C31C224CB
:100980008431A03087310B27843140012208410196
:10099000D200400123084101D300890D893B890918
:1009A000D400D50000304001CE004030CF004101DE
:1009B00055084001D300410154084001D2004101D3
:1009C00053084001D100410152084001D000853157
:1009D000E825843186304001C6009030C7004101CF
:1009E00055084001CB00410154084001CA004101B3
:1009F00053084001C900410152084001C80040307D
:100A00008C31A42484314030F5000130F6008C3163
:100A1000C22484314001DB01DC010030F300F4002A
:100A20004030F5000030F600A0308C314F24843186
:100A30003C2D0130DB070030DC3D3C2D3A304001DD
:100A4000C6009030C70040308C31A424843140303F
:100A5000F5000130F6008C31C22484310030F300FF
:100A6000F4004030F5000030F600A0308C314F2407
:100A700084314001DB01DC0108004001A4002408AE
:100A80000319432D442D582DF61F472D482D582D61
:100A90007309A6007409A7007509A8007609A900C2
:100AA000A60A0319A70A0319A80A0319A90A602D9F
:100AB0007608A9007508A8007408A7007308A600A6
:100AC0007608750474047304031D672D682D712D59
:100AD0000030F6000030F5000030F4000030F30084
:100AE000E72D9630A5007F2D0130A0002008A50736
:100AF0000130A936A80CA70CA60C890B792DFE3065
:100B00002905031D842D852D742D992D0130A000FC
:100B10002008A5070130A6070030A73D0030A83DFA
:100B20000030A93D0130A936A80CA70CA60C890BF2
:100B3000932DFF302905031D9E2D9F2D862DA92D58
:100B40000130A5020130A635A70DA80DA90D890B0E
:100B5000A32DA81BAC2DAD2DB32D023025020318FB
:100B6000B22DB32DA02D2518B62DB72DBF2DFF30DA
:100B7000A605FF30A7057F30A805FF30A9050310A3
:100B8000A50C2508A000A101A201A3011830A035E1
:100B9000A10DA20DA30D890BC72D2008A6042108C5
:100BA000A7042208A8042308A90424080319D92D9E
:100BB000DA2DDF2DF61FDD2DDE2DDF2DA9172908FB
:100BC000F6002808F5002708F4002608F3000800BE
:100BD00040015308F6005208F5005108F40050088F
:100BE000F300003085313D25853176084001B100A4
:100BF0007508B0007408AF007308AE004130AD0056
:100C00002B30AC00CC30AB007730AA0080316C20A8
:100C1000853140012D08C7002C08C6002B08C500EF
:100C20002A08C4008F31132785314001470841014C
:100C3000D900400146084101D80040014508410162
:100C4000D700400144084101D60056084001D400B5
:100C5000410157084001D500410158084001D60024
:100C6000410159084001D7000E30D736D60CD50CBB
:100C7000D40C890B352EFF305405D8003F30550574
:100C8000D900003058044101DA00403040015904D5
:100C90004101DB00FF3056054001D4003F304101E7
:100CA00057054001D500003054044101DC004030BC
:100CB000400155044101DD0000304001A500203015
:100CC000A6008D319125853141015D084001A600C6
:100CD00041015C084001A5008D319125853141011C
:100CE0005B084001A60041015A084001A5008D3172
:100CF0009125853108004001A901A31F802E812E76
:100D00008E2EA009A109A209A309A00A0319A10A0C
:100D10000319A20A0319A30AA901A90AA71F912E60
:100D2000922EA12EA409A509A609A709A40A0319B0
:100D3000A50A0319A60A0319A70A0130F3007308CC
:100D4000A9060030AD000030AC000030AB00003030
:100D5000AA0023082204210420040319B02EB12E76
:100D6000F22EA801A80ABF2E0130A035A10DA20DB8
:100D7000A30D890BB52E0130F3007308A807A31F3C
:100D8000C22EC32EB42E0130AA35AB0DAC0DAD0D65
:100D9000890BC42E23082702031DD82E2208260201
:100DA000031DD82E21082502031DD82E2008240259
:100DB000031CDB2EDC2EE52E2008A4022108A53B17
:100DC0002208A63B2308A73B2A140130A336A20C15
:100DD000A10CA00C890BE62E0130A802031DF12EF8
:100DE000F22EC32E29080319F62EF72E022FAA0978
:100DF000AB09AC09AD09AA0A0319AB0A0319AC0A7D
:100E00000319AD0A2D08A3002C08A2002B08A1008D
:100E10002A08A00008004001A900A701A801A60116
:100E2000152F0130A4002408A907290886000130E5
:100E300087002030010603191E2F1F2F112F2908AC
:100E4000860001308700F7300107A4000530240236
:100E5000031C2B2F2C2F112F29088600013087000F
:100E60002D300106031D352F362F3D2FA601A60A72
:100E70000130A4002408A907662F29088600013044
:100E800087002B300106031D462F472F662F382F72
:100E900029088600013087002808F4002708F3009D
:100EA0000A30F5000030F6008C31E22487317408F6
:100EB0004001A50001087302A400031CA503240837
:100EC000303EA7000030253DA800382F29088600B5
:100ED00001308700D0300107A4000A302402031C2F
:100EE000722F732F482F2608031D772F782F842FFA
:100EF0002709A4002809A500A40A0319A50A2408A3
:100F0000A2002508A300882F2808A3002708A20014
:100F100008004301901A8D2F8E2FF72F770840017C
:100F2000A200A3012208F3002308F4000530F50015
:100F30000030F6008C31E2248731303073078400B2
:100F40001030743D80388500000843018F00770819
:100F50004001A200A3012208F3002308F400053099
:100F6000F5000030F6008C31E22487313130730710
:100F700084001030743D80388500000843019000E3
:100F800077084001A200A3012208F3002308F4001F
:100F90000530F5000030F6008C31E2248731323024
:100FA000730784001030743D8038850000084301C9
:100FB000920077084001A200A3012208F300230851
:100FC000F4000530F5000030F6008C31E224873162
:100FD0003330730784001030743D8038850000087A
:100FE00043018D0090164001A401A40AF92F40018D
:100FF000A4012408080042011D121D160800080063
:1017520043019012080074084001E2007308E1009E
:101762000800640080010131890BB32B0034FE00B4
:1017720012001E00FE0BB92B00347A08031DC22B87
:10178200C42B0130C52B003008007734CC342B3405
:101792004134963400340034003400304001A50056
:1017A2000130A6008D3191258B3108006030510146
:1017B2008D008F01910106309300920108004E01C5
:1017C20019100F1043018F01900192018D01080041
:1017D20040016808031DEE2BF02B0130F12B003085
:1017E20008004E010C100B140030F3000030F4001E
:1017F2008B31AC238B310800730874040319022C5B
:10180200032C082C74084001E0007308DF00080074
:101812007308740403190E2C0F2C142C7408400145
:10182200DE007308DD0008007308740403191A2C23
:101832001B2C202C74084101CB007308CA0008003D
:10184200730874040319262C272C2C2C74084101CC
:10185200CD007308CC0008008B31D7238C318D3139
:10186200F2258C318D31B9258C318B31E0238C31CD
:101872008B31F2238C3108004001A91B412C422CF0
:10188200432C4E2C2809F6002909F700F60A031901
:10189200F70A7608A8007708A90008004001A1000D
:1018A2002108A0005E2C2008860001308700730802
:1018B20081000130F7007708A0070130F5020030FF
:1018C200F63B750A031D692C760A031D692C6A2CE6
:1018D200542C08004001C3004008C5003F08C40062
:1018E2007A2C4430AE004108AF0043088231A7226F
:1018F2008C31400144088400450885001200031D14
:10190200832C842C722CBF01C001080008307A029B
:1019120003188C2C8D2CA12C40016908B83E86003E
:101922008701010842019A0040016908013E073916
:10193200F1007108E9000130F0007008FA07A32CE9
:101942004E01191208004001CD004830CE004D086A
:10195200CF00D101D201D801D9014708C000460801
:10196200BF004E30C1004F308C316B248C314001AE
:1019720051084D07CC004C088600013087008101D8
:101982000800D82C8B31BE238C31003A0319CA2CA3
:10199200CB2CC32C75088400760885000008F30060
:1019A2008D3104258C310130F5070030F63D750884
:1019B2008400760885001200031DE02CE12CC32C64
:1019C20008004001A001A101731CE82CE92CEE2CB7
:1019D20075084001A0077608A13D0130F535F60DE6
:1019E200890BEF2C0130F436F30C890BF42C7308BD
:1019F2007404031DFD2CFE2CE52C40012108F4008B
:101A02002008F30008004E01191A082D092D0D2D8A
:101A1200730842019A00232D7A080319112D122D01
:101A2200232D40016A08B83E8600870173088100B1
:101A32006A08013E0739F4007408EA004E011912DF
:101A42000130FA024E01191608007808B03E8600ED
:101A520087010108F4007808013E0739F300730892
:101A6200F8007835A03E86008701403F4101C8005A
:101A7200413FC9004E019912400168080319422DE5
:101A8200432D452D0130E8024E01991674080800D5
:101A920073084001A2007508A1007408A000662D19
:101AA200220886008701010843018C004E010F1CA9
:101AB2005B2D5C2D572D0F100130F600760840018A
:101AC200A2070130A0020030A13B20082104031D1F
:101AD2006B2D6C2D512D08004001A400A001A10125
:101AE2007308F500F6017508A2007608A300241C0D
:101AF2007B2D7C2D802D2208A0072308A13D0130DB
:101B0200A235A30D890B812D0310A40C2408031DFB
:101B12008B2D8C2D782D2108F4002008F30008006D
:101B220040012608A7002508A800F7018731892768
:101B32008D31003A03199E2D9F2DB82D40011913A6
:101B42002730F3000130F4000030F5008D314925D3
:101B52008D312830F3000130F4000030F5008D3172
:101B620049258D31400119178B31A9238D31080088
:101B72004E0199127130F3000E30F4008C311524AD
:101B82008D314E0119128730F3000C30F4008C3184
:101B920021248D31483042019F0090309D00263033
:101BA2009E0040309B0003309C000230F300003066
:101BB200F4008B31FD238D31FB30F3000730F4004C
:101BC2008C3109248D314101C801C9014001EA016A
:101BD200E9010830FA00F901F801E8014E0199160D
:101BE20008004001980199019A011F30920080304B
:101BF2009300FF30940007307E01B8008030C300AC
:101C0200FF30CE00B901C401CF01BA01C501D00134
:101C12003730BB00F030C600FF30D1003F30BC008F
:101C2200F030C700FF30D20004307D01CB00143009
:101C32007E019C000F3095000D307D01C5001330F0
:101C42007E019D00BD01BE01BF01C801C901CA01DB
:101C5200D301D401D50108008C312D248E318B178C
:101C62000B176F30F5009030F6008C31C2248E31A4
:101C720000304101D5000230D4002230D300E030E0
:101C8200D2008B31CE238E3100304001A500A60058
:101C92008D3191258E3100304001CE004030CF0091
:101CA200410155084001D300410154084001D200CE
:101CB200410153084001D100410152084001D000C6
:101CC2008531E8258E3100304001A500A6008D3116
:101CD20091258E31843181248E316B2E80313728CB
:101CE2007935A03E860087010030C03FC13F4201E6
:101CF2009D1C7C2E7D2E8E2E7935A03E860087017E
:101D0200011540015D085E040319882E892E8E2E6E
:101D12005E088A005D080A008E3142011D1D922E66
:101D2200932EA42E7935A03E8600870181144001AE
:101D32005F08600403199E2E9F2EA42E60088A005D
:101D42005F080A008E3142011908F1007908013E4C
:101D52000739F20072087806031DB02EB12EB22E9A
:101D6200BF2E7908B03E8600870171088100720893
:101D7200F9000130F00070084001E807080075081A
:101D82000319C42EC52ECA2E7508031DC92ECA2ECC
:101D9200CF2E73088731FF278E31122F7508093E27
:101DA20086008701160001040319D82ED92EF82EB9
:101DB2007508093E86008701403F4001A000413F6F
:101DC200A1007508023E86008701403FA200413F04
:101DD200A3002308803AA4002108803A2402031DAC
:101DE200F42E200822020318F72EF82E122F75085F
:101DF200860087017508023E8400850100080107FC
:101E02004001A0002008860001308700730881008D
:101E12007508023E860087010130810741310318AF
:101E2200810A080003104001460D470DCD004D0800
:101E3200031D1C2F1D2F262F0030C7000030C600A7
:101E42000030C5000030C400832F4408C800450894
:101E5200C9004608CA004708CB001F30CB36CA0C5F
:101E6200C90CC80C890B2F2F4808CC00C617FF30AD
:101E7200C405FF30C505FF30C6050030C7059630E2
:101E8200CD02CD1F452F462F5E2F4D08803A973E3B
:101E920003184C2F4D2F4E2F1D2F0130C736C60C65
:101EA200C50CC40C890B4F2F0130C8004808CD0760
:101EB200031D5C2F5D2F4E2F732F20304D02031C0C
:101EC200632F642F6E2F1D2F0130C435C50DC60D33
:101ED200C70D890B662F0130CD024D08031D722FED
:101EE200732F652F4C080319772F782F832FC4097E
:101EF200C509C609C709C40A0319C50A0319C60ACE
:101F02000319C70A0800F5014001A71F892F8A2F6C
:101F1200972FA409A509A609A709A40A0319A50AC6
:101F22000319A60A0319A70AF501F50AA31F9A2F96
:101F32009B2FA62FA009A109A209A309A00A031990
:101F4200A10A0319A20A0319A30A230822042104DD
:101F520020040319AD2FAE2FE72FF401F40ABC2F92
:101F62000130A035A10DA20DA30D890BB22F0130B6
:101F7200F3007308F407A31FBF2FC02FB12F23084C
:101F82002702031DCE2F22082602031DCE2F210871
:101F92002502031DCE2F20082402031CD12FD22F8D
:101FA200DA2F2008A4022108A53B2208A63B230819
:101FB200A73B0130A336A20CA10CA00C890BDB2F8E
:101FC2000130F402031DE62FE72FC02F7508031915
:101FD200EB2FEC2FF72FA409A509A609A709A40A3C
:101FE2000319A50A0319A60A0319A70A2708A300B9
:101FF2002608A2002508A1002408A0000800B93480
:102002000D340034003426340D3404340D34E934F4
:102012000B34BE340B34003400340034003400344A
:10202200003400340034003400340034003400340E
:1020320000340034003400340034003400340034FE
:10204200003421340C3415340C3400340034FD34A3
:102052000B3409340C34003400340034003440347E
:102062001A3410343F3400346434003410340134F0
:1020720000340D340A3445347834633465346534BD
:1020820064346534643420344234753466346634DE
:10209200653472342034533469347A3465340D34FF
:1020A2000A340034E0340B34003400348934073409
:1020B200A9340B34003400340034003449340D3474
:1020C200003400340034003400340034003400346E
:1020D20000340034003400340034003453344334C8
:1020E2004D344134543455342034483465346C34DE
:1020F2006C346F342C34203457346F3472346C3473
:10210200643421340D340A34003446347234653474
:1021120063342034733465347434203474346F344B
:102122003A34203425346C3464340D340A340034A7
:1021320052346534633469346234693464346F34DC
:0E2142003A342034253473340D340A3400341A
:020000040001F9
:0A000E00EC3F5D3F9F3FFF1FFF3FE7
:00000001FF
