:1000000080314F28080008007E1480314E01161EF2
:100010000A280B2813280C1E0E280F2813288831B5
:10002000812080314D280B1F162817284D28191EB6
:100030001A281B2826280F1E1E281F2826284101A3
:1000400065088A0064080A0080314D28991E292815
:100050002A2835288F1E2D282E283528410163088F
:100060008A0062080A0080314D28961E38283928F7
:1000700041288C1E3C283D2841288831F6208031BB
:100080004D281C1C442845284D28121C4828492866
:100090004D288931412180314D287E100900803161
:1000A0005128A330840088308500E6308600003077
:1000B00087000830883195208031F001F101F2018C
:1000C000F301F4015F308400003085000D30883189
:1000D0008F208031A0308400003085004630883188
:1000E0008F208031203084000130850040308831FD
:1000F0008F208031A030840001308500403088316D
:100100008F2080317E1040018631F22E4001B800F0
:100110002F0886008701403FB100413FB2003108FF
:100120008400320885001200253A031D982899287A
:10013000FF2A2F088600870101308107413103180B
:10014000810A4101C401C5010310003003180130C8
:100150004001E300FF304101C600FF30C70040010D
:100160002F0886008701403FB900413FBA00390897
:1001700084003A0885000008BF00C8280130B9078C
:100180000030BA3DD6286930BF00D628BF01D62836
:100190003F08643A0319C3280D3A0319C328053AE6
:1001A0000319BE28193A0319C328C6283908840040
:1001B0003A0885001200643A0319DF28E028122962
:1001C000390884003A0885001200693A031DE928BD
:1001D000EA28B02912293008860087010108840026
:1001E000850102308107003FB100013FB2003108B4
:1001F000BB003208BC00890D893B8909BD00BE00E7
:100200001A2930088600870101088400850104301E
:100210008107003FBB00013FBC00023FBD00033F20
:10022000BE001A293F08693A0319EB28053A031959
:1002300001291A293908013EB10000303A3DB200C7
:100240002F08860087013108C03F3208C13F2030A7
:10025000BF00BE1B2C292E2901302F290030B700EA
:100260000130BF023F08203E860001308700003089
:10027000A3000030A2000030A1000A30A0003E0818
:10028000A7003D08A6003C08A5003B08A4008D314E
:10029000E325803140012108AC002008AB00893102
:1002A0005321803140012B08303E81000030A300F3
:1002B0000030A2000030A1000A30A0003E08A700D4
:1002C0003D08A6003C08A5003B08A4008E31DD26B1
:1002D000803140012308BE002208BD002108BC0077
:1002E0002008BB003E083D043C043B040319792967
:1002F0007A297F293F08031D7E297F2930293F085D
:10030000031983298429A9293708031988298929E8
:10031000A9290130BF023F08203E86000130870036
:100320002D308100A9293F08203E8600013087003A
:100330000108B100B2013108A0003208A10038085C
:10034000A2008C31A924803101304001B100310874
:10035000BF0720303F06031DAE29AF299329172B75
:10036000390884003A0885001200753A031DB9293E
:10037000BA29652ADF293008860087010108840030
:10038000850102308107003FB100013FB200310812
:10039000BB003208BC00BD01BE01E7293008860061
:1003A000870101088400850104308107003FBB00FC
:1003B000013FBC00023FBD00033FBE00E7293F08EC
:1003C000693A0319BB29053A0319CE29E7293908E7
:1003D000013EB10000303A3DB2002F08860087018F
:1003E0003108C03F3208C13F5C2A2030BF000130D5
:1003F000BF023F08203E8600013087000030A30086
:100400000030A2000030A1000A30A0003E08A70082
:100410003D08A6003C08A5003B08A4008C310F2431
:10042000803140012008303E81000030A3000030C0
:10043000A2000030A1000A30A0003E08A7003D083D
:10044000A6003C08A5003B08A40087319B2780310B
:1004500040012308BE002208BD002108BC0020087E
:10046000BB003E083D043C043B040319382A392AEA
:10047000552A3F08031D3D2A3E2AF729552A3F08E1
:10048000203E8600013087000108B100B20131082A
:10049000A0003208A1003808A2008C31A9248031C4
:1004A00001304001B1003108BF0720303F06031D75
:1004B0005A2A5B2A3F2A172B390884003A088500FC
:1004C0000008753A0319F529652AB7012F08860037
:1004D0008701403FB100413FB2003108840032083B
:1004E00085001200733A031D762A772A822A2F0884
:1004F000860087010130810741310318810AB70165
:10050000B70AC42A2F0886008701403FB100413F47
:10051000B200310884003208850012006C3A031DD5
:10052000922A932AC42A2F0886008701403FB100EF
:10053000413FB20001303107840032080318320A0B
:10054000850012006C3A031DA62AA72AC42A2F0888
:1005500086008701403FB100413FB20002303107C1
:10056000840032080318320A85001200733A031D12
:10057000BA2ABB2AC42A2F088600870103308107C4
:1005800041310318810A7F2A37080319C82AC92A6A
:10059000F52A3008860087010108840085010230B1
:1005A0008107003FB500013FB600EB2A3508860001
:1005B000360887000108B100B2013108A0003208F6
:1005C000A1003808A2008C31A924803101304001FB
:1005D000B5070030B63D35088600360887000108AB
:1005E000031DF32AF42AD62A172B40012F08860070
:1005F00087010130810741310318810A172B2F0829
:1006000086008701403FB100413FB20031088400BD
:10061000320885000008B300B4013308A000340894
:10062000A1003808A2008C31A9248031F52A0800E5
:10063000400131088039BB003135C100B01F212B8A
:10064000222B232B411441080319272B282B372B4E
:10065000410A031D2C2B2D2B352B0030B10000300F
:10066000B0000030AF000030AE00B0173F2B0030BC
:10067000B1000030B0000030AF000030AE003508EF
:100680008039B6003608BB063535BC00B41F492B8F
:100690004A2B4B2B3C143C0803194F2B502B5F2B40
:1006A0003C0A031D542B552B5D2B0030B500003048
:1006B000B4000030B3000030B200B417672B003034
:1006C000B5000030B4000030B3000030B2003C0888
:1006D00003196B2B6C2B712B4108031D702B712B95
:1006E0007A2B0030B1000030B0000030AF00003095
:1006F000AE00522D2E08A00034088A31C422833166
:1007000040012108C7002008C6004608B600B7010E
:10071000B801B9013908C0003808BF003708BE0069
:100720003608BD004708B600B701B801B90139085D
:10073000C5003808C4003708C3003608C2002F08B7
:10074000A00033088A31C422833140012108C70048
:100750002008C6004608B600B701B801B90136083E
:10076000BD073708BE3D3808BF3D3908C03D4708C2
:10077000B600B701B801B9013608C2073708C33D52
:100780003808C43D3908C53D3008A00032088A3118
:10079000C422833140012108C7002008C600460852
:1007A000B600B701B801B9013608BD073708BE3D2C
:1007B0003808BF3D3908C03D4708B600B701B80149
:1007C000B9013608C2073708C33D3808C43D3908A7
:1007D000C53D0830BD35BE0DBF0DC00D890BEA2BE0
:1007E0002F08A00032088A31C42283314001210839
:1007F000C7002008C6004608BD074708BE3D0030B8
:10080000BF3DC03D2E08A00033088A31C422833189
:1008100040012108C7002008C6004608BD07470858
:10082000BE3D0030BF3DC03D0830BD35BE0DBF0DE3
:10083000C00D890B152C2E08A00032088A31C42265
:10084000833140012108C7002008C6004608BD07C3
:100850004708BE3D0030BF3DC03D2F08A000340812
:100860008A31C422833140012108C7002008C60014
:100870004608C2074708C33D0030C43DC53D3008A7
:10088000A00033088A31C422833140012108C70007
:100890002008C6004608C2074708C33D0030C43DD3
:1008A000C53D3008A00034088A31C422833140019C
:1008B0002108C7002008C6004608B6004708B70050
:1008C000B801B9010830B635B70DB80DB90D890BAF
:1008D000632C3608C2073708C33D3808C43D3908C1
:1008E000C53D3D08B6003E08B7003F08B8004008C7
:1008F000B9001830B936B80CB70CB60C890B7A2C85
:100900003608C2073708C33D3808C43D3908C53D1D
:100910000830BD35BE0DBF0DC00D890B892C4108B7
:100920003C07B600B701B70D3608823EC600FF305F
:10093000373DC700B22C0130C235C30DC40DC50D03
:10094000890B9C2CC01FA52CA62CA72C421401306F
:10095000BD35BE0DBF0DC00D890BA82CFF30C607DD
:10096000FF30C73DC41FB52CB62C9B2CBC01C01F4B
:10097000BA2CBB2CD72CFF303D05B600FF303E050E
:10098000B700FF303F05B8007F304005B900390897
:100990003804370436040319CE2CCF2CD22CBC01DA
:1009A000BC0AD72C421CD52CD62CD72CCF2C3C08DB
:1009B0000319DB2CDC2C042D0130C2070030C33DB1
:1009C0000030C43D0030C53D451CE72CE82C042D0B
:1009D0004208B6004308B7004408B8004508B9000B
:1009E0000130BA00B937B80CB70CB60CBA0BF22C00
:1009F0003908C5003808C4003708C3003608C200EB
:100A00000130C6070030C73D4708803AB600803045
:100A10003602031D0D2DFF304602031C102D112D33
:100A20001B2D7F304001C5008030C4000030C30062
:100A30000030C200462D40014708803AB6008030A1
:100A40003602031D252D013046020318282D292DBD
:100A5000342D00304001C5000030C4000030C30018
:100A60000030C200BB01462D40014608C100FF30E6
:100A7000C205FF30C3057F30C4050030C505411CE9
:100A8000422D432D442DC4174136C5003B08B60006
:100A90003608C5044508B1004408B0004308AF005B
:100AA0004208AE0008008731F6278531003A031965
:100AB0005A2D5B2D462E40016008803ADE008030C2
:100AC0005E02031D652D3F305F020318682D692DFE
:100AD000262E8A31E82285314001DE005F08A03EE3
:100AE0008600013087005E0881005F08A03E860016
:100AF000013087000A300106031D7F2D802D212E35
:100B00005F08A03E86000130870081010A30A00006
:100B10009130A100A0308B315E2385314001200847
:100B20002104031D942D952DB42DE430C700903081
:100B3000C80040308931FD21853140304001A2009C
:100B40000130A3008A317D2285314001E401410159
:100B5000C001C101C201C301C801C9014E011C1479
:100B60004001E501E50A122ED530C7009030C800DB
:100B7000A030C9000130CA0040308931FD218531E3
:100B800040304001A2000130A3008A317D2285312E
:100B9000A0308E315F268531400126084101EA00F0
:100BA000400127084101EB00890D893B8909EC00D0
:100BB000ED0000304001D2004030D30041016D080B
:100BC0004001D70041016C084001D60041016B088B
:100BD0004001D50041016A084001D4008F316D27E2
:100BE0008531C2304001C7009030C80041016D0816
:100BF0004001CC0041016C084001CB0041016B0871
:100C00004001CA0041016A084001C90040308931F1
:100C1000FD21853140304001A2000130A3008A311E
:100C20007D2285314001DF01E0010030A000A100FC
:100C30004030A2000030A300A0308931C5218531A9
:100C4000462E0130DF070030E03D462E4C3040019B
:100C5000C7009030C80040308931FD2185314030D7
:100C60004001A2000130A3008A317D22853100308D
:100C70004001A000A1004030A2000030A300A0303D
:100C80008931C52185314001DF01E00108004001C3
:100C9000A800280803194D2E4E2E622EA31F512E98
:100CA000522E622E2009AA002109AB002209AC00B5
:100CB0002309AD00AA0A0319AB0A0319AC0A0319E8
:100CC000AD0A6A2E2308AD002208AC002108AB0053
:100CD0002008AA002308220421042004031D712EE9
:100CE000722E7B2E0030A3000030A2000030A10045
:100CF0000030A000F12E9630A900892E0130A4000A
:100D00002408A9070130AD36AC0CAB0CAA0C890B3A
:100D1000832EFE302D05031D8E2E8F2E7E2EA32EAC
:100D20000130A4002408A9070130AA070030AB3D18
:100D30000030AC3D0030AD3D0130AD36AC0CAB0CFD
:100D4000AA0C890B9D2EFF302D05031DA82EA92E60
:100D5000902EB32E0130A9020130AA35AB0DAC0D97
:100D6000AD0D890BAD2EAC1BB62EB72EBD2E0230AD
:100D700029020318BC2EBD2EAA2E2918C02EC12E62
:100D8000C92EFF30AA05FF30AB057F30AC05FF3020
:100D9000AD050310A90C2908A400A501A601A7010F
:100DA0001830A435A50DA60DA70D890BD12E24084A
:100DB000AA042508AB042608AC042708AD042808BB
:100DC0000319E32EE42EE92EA31FE72EE82EE92EC9
:100DD000AD172D08A3002C08A2002B08A1002A089B
:100DE000A00008008931912186318B170B171B3029
:100DF0004001A0000A30A1008831B420863196302D
:100E00004001A2009030A3008A317D22863100305B
:100E10004101ED000230EC002230EB00E030EA004E
:100E20008831AB20863100304001AA00AB008B3105
:100E30003523863100304001D2004030D3004101DB
:100E40006D084001D70041016C084001D600410106
:100E50006B084001D50041016A084001D4008F3180
:100E60006D27863100304001AA00AB008B3135235D
:100E700086314E011C1085315325863140016608AC
:100E80000319432F442F3B2F4101480849040319FC
:100E90004A2F4B2F3B2F7E304001C7009030C800B7
:100EA000410141084001CA00410140084001C90018
:100EB00040308931FD21863140304001A2000130AF
:100EC000A3008A317D22863165304001C700903011
:100ED000C800410143084001CA00410142084001E5
:100EE000C90040308931FD21863140304001A200E7
:100EF0000130A3008A317D228631AD304001C70028
:100F00009030C800410149084001CA004101480829
:100F10004001C90040308931FD2186314030400117
:100F2000A2000130A3008A317D2286314001E60112
:100F30003B2F80314F2800304001AC000030AB0027
:100F40000030AA000030A900230822042104200454
:100F50000319AB2FAC2FED2FAD01AD0ABA2F013025
:100F6000A035A10DA20DA30D890BB02F0130A80053
:100F70002808AD07A31FBD2FBE2FAF2F0130A93505
:100F8000AA0DAB0DAC0D890BBF2F23082702031D43
:100F9000D32F22082602031DD32F21082502031D6B
:100FA000D32F20082402031CD62FD72FE02F200890
:100FB000A4022108A53B2208A63B2308A73B29142D
:100FC0000130A336A20CA10CA00C890BE12F01303B
:100FD000AD02031DEC2FED2FBE2F2C08A3002B0814
:100FE000A2002A08A1002908A000080040016B08FF
:100FF000031DFB2FFD2F0130FE2F003008000800DD
:1010FE0008000800080043019012080042011D126A
:10110E001D16080040012108E2002008E100080039
:10111E00640080010131890B90280034FE0012001A
:10112E001E00FE0B962800347208031D9F28A1286E
:10113E000130A228003008007734CC342B344134EF
:10114E00963400340034003400304001AA000130DF
:10115E00AB008B3135238831080040012108410155
:10116E00EF00400120084101EE00080060305101FF
:10117E008D008F01910106309300920108004E01FF
:10118E0019100F1043018F01900192018D0108007B
:10119E00400121084101D900400120084101D80039
:1011AE000800400121084101DB00400120084101F7
:1011BE00DA000800400121084101DD00400120084D
:1011CE004101DC0008004E010C100B1400304001F0
:1011DE00A0000030A10088318920883108004E011E
:1011EE008C124101580859040319FE28FF280429BE
:1011FE0059088A0058080A00893108004001200861
:10120E00210403190B290C29132921084101D500AA
:10121E00400120084101D4000800400120082104AB
:10122E0003191A291B29222921084101D300400143
:10123E0020084101D20008004001200821040319B2
:10124E0029292A29312921084101E30040012008DA
:10125E004101E20008004001200821040319382949
:10126E003929402921084101E500400120084101AA
:10127E00E40008004E01121046010C08F8000D089B
:10128E00F9007908F6007808F50041016F088A0028
:10129E006E080A00893108004001AC1B57295829F5
:1012AE00592964292B09AD002C09AE00AD0A03198A
:1012BE00AE0A2D08AB002E08AC0008009B304B0187
:1012CE009D009C0158309F0003304001A00000306B
:1012DE00A1008831CF2089314E018C1296168030B4
:1012EE004B019E000800863046018E008F018D0155
:1012FE008C017F304001A0000830A1008831B4205D
:10130E00893144011E08FC3901389E004E0112102D
:10131E001C1408008831BD2089318B31CE238931D0
:10132E0089317A2189318B31912389318831C620D7
:10133E0089318931652189318B310D23893188318C
:10134E00EA2089310800083072020318AF29B0294B
:10135E00C2297308B83E86008701010842019A002F
:10136E007308013E0739F6007608F3000130F500E8
:10137E007508F207C4294E01191208004001A60093
:10138E002608A500D42925088600013087002008EC
:10139E0081000130A4002408A5070130A20200300C
:1013AE00A33B220A031DDF29230A031DDF29E0299F
:1013BE00CA2908004001C4004108C6004008C50003
:1013CE00F0294530AF004208B00044088031862035
:1013DE008931400145088400460885001200031D2E
:1013EE00F929FA29E829C001C10108004001CE00FF
:1013FE004930CF004E08D000D201D301D901DA0115
:10140E004808C1004708C0004F30C2005030893133
:10141E00E1218931400152084E07CD004D0886006A
:10142E00013087008101080040016435C03E86000E
:10143E0087017508C03F7608C13F6403031D282A43
:10144E00292A352A410140084202C8004108433B7F
:10145E00C9004E011C104001E601E60A0130F700FA
:10146E007708E40608004001A401A501201C402ACB
:10147E00412A452A2208A4072308A53D0130A2359A
:10148E00A30D890B462A0130A136A00C890B4B2ADD
:10149E0020082104031D542A552A3D2A2508A1009F
:1014AE002408A00008004E01191A5E2A5F2A642A39
:1014BE004001200842019A007A2A72080319682A0C
:1014CE00692A7A2A7408B83E8600870140012008EE
:1014DE0081007408013E0739A1002108F4004E0175
:1014EE0019120130F2024E0119160800952A8831A0
:1014FE009B208A31003A0319852A862A7E2A4001CA
:10150E0022088400230885000008A0008A315A2290
:10151E008A3101304001A2070030A33D400122086C
:10152E008400230885001200031D9E2A9F2A7E2A0E
:10153E00080040012008A6002208A5002108A400EA
:10154E00BD2A260886008701010843018C004E0142
:10155E000F1CB22AB32AAE2A0F1001304001A3008D
:10156E002308A6070130A4020030A53B2408250459
:10157E00031DC22AC32AA82A08004001A800A401FC
:10158E00A5012008A200A3012208A6002308A70097
:10159E00281CD22AD32AD72A2608A4072708A53D15
:1015AE000130A635A70D890BD82A0310A80C2808E0
:1015BE00031DE22AE32ACF2A2508A1002408A00051
:1015CE0008007008B03E8600870101084001A100A6
:1015DE007008013E0739A0002008F0007035A03ECB
:1015EE0086008701403F4101D600413FD7004E01A2
:1015FE00991240016B080319052B062B082B01309D
:10160E00EB024E01991640012108080044010E100C
:10161E008F01900102309100FF308D00FE308C0062
:10162E000D084101E10044010C084101E0000230C7
:10163E004001A0000030A1008831E1208B31003044
:10164E004001A0000030A1008831D8208B314E011E
:10165E0010101110053044018E00080040012B08B7
:10166E00AC002A08AD00A6018D316D258B31003AF4
:10167E000319422B432B5D2B400119132C30A00074
:10168E000130A1000030A2008A31A0228B312D3012
:10169E004001A0000130A1000030A2008A31A0223A
:1016AE008B3140011917883182208B31080040019F
:1016BE00A300692B0130A2002208A3070130A00766
:1016CE000030A13D20088400210885000008A200FA
:1016DE00230886000130870001082206031D782B9F
:1016EE00792B822B23088600013087000108031D09
:1016FE00812B822B612B2308860001308700200866
:10170E0084002108850000080102A000A101031C2D
:10171E00A10308004E0199125A304001A0000C306E
:10172E00A100893123218B314E011912AA304001BB
:10173E00A0000930A100893132218B31483042019D
:10174E009F0090309D0026309E0040309B0003305D
:10175E009C0080304001A0000830A1008931052195
:10176E008B3185304001A0000830A1008931142151
:10177E008B314101D601D701F401F3010830F2009B
:10178E00F101F0014001EB014E01991608004001F4
:10179E00980199019A011F30920080309300FF301A
:1017AE00940007307E01B8008030C300DF30CE00D9
:1017BE00B901C401CF01BA01C501D0013730BB0058
:1017CE00F030C600FF30D1003F30BC00F030C70013
:1017DE00FF30D20004307D01CB0014307E019C001E
:1017EE000F3095000D307D01C50013307E019D0038
:1017FE0015307D01A10009307E01A500BD01BE019D
:10180E00BF01C801C901CA01D301D401D501080025
:10181E00400123082204210420040319172C182C3C
:10182E00512CA901A90A262C0130A035A10DA20D1B
:10183E00A30D890B1C2C0130A8002808A907A31F93
:10184E00292C2A2C1B2C23082702031D382C220896
:10185E002602031D382C21082502031D382C2008D2
:10186E002402031C3B2C3C2C442C2008A4022108EF
:10187E00A53B2208A63B2308A73B0130A336A20CAA
:10188E00A10CA00C890B452C0130A902031D502C74
:10189E00512C2A2C2708A3002608A2002508A100F7
:1018AE002408A00008007135A03E86008701003094
:1018BE00C03FC13F42019D1C652C662C772C7135B3
:1018CE00A03E8600870101154101520853040319F9
:1018DE00712C722C772C53088A0052080A008C3116
:1018EE0042011D1D7B2C7C2C8D2C7135A03E86005B
:1018FE00870181144101540855040319872C882C43
:10190E008D2C55088A0054080A008C3142011908A2
:10191E00F6007108013E0739F70077087006031DBF
:10192E00992C9A2C9B2CA82C7108B03E860087010E
:10193E00760881007708F1000130F5007508400146
:10194E00EB070800400122080319AE2CAF2CB42C73
:10195E002208031DB32CB42CB92C20088731FF2785
:10196E008C31FB2C2208093E8600870116000104EB
:10197E000319C22CC32CE12C2208093E86008701D4
:10198E00403FA300413FA4002208023E860087018B
:10199E00403FA500413FA6002608803AA700240834
:1019AE00803A2702031DDD2C230825020318E02CA4
:1019BE00E12CFB2C40012208860087012208023E02
:1019CE008400850100080107A3002308860001306A
:1019DE008700200881002208023E86008701013020
:1019EE00810741310318810A0800031040014A0D96
:1019FE004B0DD1005108031D052D062D0F2D003066
:101A0E00CB000030CA000030C9000030C8006C2D79
:101A1E004808CC004908CD004A08CE004B08CF003C
:101A2E001F30CF36CE0CCD0CCC0C890B182D4C089C
:101A3E00D000CA17FF30C805FF30C905FF30CA05F0
:101A4E000030CB059630D102D11F2E2D2F2D472DD4
:101A5E005108803A973E0318352D362D372D062D19
:101A6E000130CB36CA0CC90CC80C890B382D01308D
:101A7E00CC004C08D107031D452D462D372D5C2D6E
:101A8E0020305102031C4C2D4D2D572D062D0130AB
:101A9E00C835C90DCA0DCB0D890B4F2D0130D102A2
:101AAE005108031D5B2D5C2D4E2D50080319602D22
:101ABE00612D6C2DC809C909CA09CB09C80A0319B9
:101ACE00C90A0319CA0A0319CB0A08004301901A5E
:101ADE00712D722DDF2D40012608A700A8012708C1
:101AEE00A0002808A1000530A2000030A3008A3112
:101AFE003A228D3115304001200784001130213DEE
:101B0E0080388500000843018F0040012608A70099
:101B1E00A8012708A0002808A1000530A200003067
:101B2E00A3008A313A228D311630400120078400FD
:101B3E001130213D8038850000084301900040019E
:101B4E002608A700A8012708A0002808A100053034
:101B5E00A2000030A3008A313A228D3117304001A5
:101B6E00200784001130213D803885000008430194
:101B7E00920040012608A700A8012708A000280807
:101B8E00A1000530A2000030A3008A313A228D3127
:101B9E0018304001200784001130213D8038850027
:101BAE00000843018D0090164001A901A90AE12DFC
:101BBE004001A901290808004001AA01A71FE82D2C
:101BCE00E92DF62DA409A509A609A709A40A03194A
:101BDE00A50A0319A60A0319A70AAA01AA0AA31F8E
:101BEE00F92DFA2D052EA009A109A209A309A00A13
:101BFE000319A10A0319A20A0319A30A230822042E
:101C0E002104200403190C2E0D2E462EA901A90A1B
:101C1E001B2E0130A035A10DA20DA30D890B112E87
:101C2E000130A8002808A907A31F1E2E1F2E102E54
:101C3E0023082702031D2D2E22082602031D2D2EFA
:101C4E0021082502031D2D2E20082402031C302EF0
:101C5E00312E392E2008A4022108A53B2208A63BCE
:101C6E002308A73B0130A336A20CA10CA00C890BB4
:101C7E003A2E0130A902031D452E462E1F2E2A088C
:101C8E0003194A2E4B2E562EA409A509A609A709FB
:101C9E00A40A0319A50A0319A60A0319A70A2708F5
:101CAE00A3002608A2002508A1002408A000080011
:101CBE004001AD00AB01AC01AA01692E0130A800B4
:101CCE002808AD072D088600013087002030010658
:101CDE000319722E732E652E2D0886000130870093
:101CEE00F7300107A80005302802031C7F2E802E36
:101CFE00652E2D088600013087002D300106031D4C
:101D0E00892E8A2E912EAA01AA0A0130A80028082F
:101D1E00AD07BA2E2D088600013087002B30010644
:101D2E00031D9A2E9B2EBA2E8C2E2D088600013066
:101D3E0087002C08A1002B08A0000A30A20000305A
:101D4E00A3008A313A228E3140012108A9000108F0
:101D5E002002A800031CA9032808303EAB00003067
:101D6E00293DAC008C2E2D08860001308700D03026
:101D7E000107A8000A302802031CC62EC72E9C2E6F
:101D8E002A08031DCB2ECC2ED82E2B09A8002C09E9
:101D9E00A900A80A0319A90A2808A6002908A7005D
:101DAE00DC2E2C08A7002B08A60008004001AA0173
:101DBE00A31FE22EE32EF02EA009A109A209A3096A
:101DCE00A00A0319A10A0319A20A0319A30AAA0158
:101DDE00AA0AA71FF32EF42E032FA409A509A609FC
:101DEE00A709A40A0319A50A0319A60A0319A70A23
:101DFE000130A8002808AA060030AE000030AD0061
:101E0E000030AC000030AB00230822042104200473
:101E1E000319122F132F542FA901A90A212F0130B4
:101E2E00A035A10DA20DA30D890B172F0130A8000F
:101E3E002808A907A31F242F252F162F0130AB35F5
:101E4E00AC0DAD0DAE0D890B262F23082702031DF9
:101E5E003A2F22082602031D3A2F21082502031DC0
:101E6E003A2F20082402031C3D2F3E2F472F200817
:101E7E00A4022108A53B2208A63B2308A73B2B144E
:101E8E000130A336A20CA10CA00C890B482F0130F7
:101E9E00A902031D532F542F252F2A080319582F3B
:101EAE00592F642FAB09AC09AD09AE09AB0A031962
:101EBE00AC0A0319AD0A0319AE0A2E08A3002D08A9
:101ECE00A2002C08A1002B08A00008004001570812
:101EDE00A3005608A2005508A1005408A000003027
:101EEE00863147268F3140012308B5002208B40001
:101EFE002108B3002008B2004130B1002B30B000F1
:101F0E00CC30AF007730AE00833118238F314001D3
:101F1E003108CB003008CA002F08C9002E08C800AF
:101F2E008C31FC248F3140014B084201E30040010B
:101F3E004A084201E200400149084201E100400125
:101F4E0048084201E00060084001D80042016108E3
:101F5E004001D900420162084001DA0042016308E3
:101F6E004001DB000E30DB36DA0CD90CD80C890BB5
:101F7E00BA2FFF305805DC003F305905DD00003028
:101F8E005C044201E400403040015D044201E50082
:101F9E00FF3060054001D8003F304201610540012D
:101FAE00D900003058044201E60040304001590487
:101FBE004201E70000304001AA002030AB008B3117
:101FCE0035238F31420167084001AB00420166089C
:101FDE004001AA008B3135238F3142016508400143
:101FEE00AB00420164084001AA008B3135238F31CA
:101FFE00080091340B3400340034E8340A345A3477
:10200E000A34F63407349B34083400340034003478
:10201E000034003400340034003400340034003412
:10202E000034003400340034003400340034003402
:10203E00003400340034323409342334093400348B
:10204E0000340534093414340934003400340034B7
:10205E000034C6340834003400346D340D34823408
:10206E0008340034003400340034A0340A34003410
:10207E0000340034003400340034003400340034B2
:10208E00003400340034003400340D340A34453446
:10209E0078346334653465346434653464342034A0
:1020AE0042347534663466346534723420345334B5
:1020BE0069347A3465340D340A340034433443348D
:1020CE00503420345334653463346F346E34643496
:1020DE00203443346134703474347534723465345E
:1020EE003A342034253475340D340A3400344334F4
:1020FE004334503420344634693472347334743477
:10210E00203443346134703474347534723465342D
:10211E003A342034253475340D340A3400345334B3
:10212E0043344D34413454345534203448346534BA
:10213E006C346C346F342C34203457346F34723426
:10214E006C34643421340D340A3400344334433453
:10215E005034203444346934663466346534723411
:10216E0065346E34633465343A3420342534753432
:10217E000D340A34003446347234653463342034FA
:10218E00733465347434203474346F343A342034F8
:10219E0025346C3464340D340A34003452346534CE
:1021AE00633469346234693464346F343A342034BD
:1021BE00253473340D340A340034433443345034EC
:1021CE00203465346E34613462346C346534643476
:1021DE000D340A34003465340934003400340034CC
:1021EE00003400340034CF340834003400340D345D
:1021FE000B34003400340034003400340034E13445
:10220E000834003400344334433450345F3445349E
:10221E006E34613462346C346534003440341A34B4
:10222E0010343F340034643400341034013400343C
:020000040001F9
:0A000E00EC3F5D3F9F3FFF1FFF3FE7
:00000001FF
