:1000000080314328080008007E1480314E01161EFE
:100010000A280B2813280C1E0E280F2813288031BD
:100020000320803141280B1F162817284128191E4C
:100030001A281B2826280F1E1E281F2826284101A3
:100040005F088A005E080A0080314128991E29282D
:100050002A2835288F1E2D282E28352841015D0895
:100060008A005C080A00803141281C1C3828392885
:100070004128121C3C283D284128893154218031D7
:1000800041287E10090080314528BC30840088302A
:100090008500E53086000030870008308831AE20CA
:1000A0008031F001F101F201F301F40161308400CB
:1000B000003085000B308831A8208031A0308400CA
:1000C0000030850045308831A82080312030840000
:1000D0000130850048308831A8208031A03084006C
:1000E0000130850040308831A82080317E104001E9
:1000F00086312E2E4001B8002F0886008701403F30
:10010000B100413FB200310884003208850012007E
:10011000253A031D8C288D28F12A2F088600870197
:100120000130810741310318810A4101BC01BD0141
:100130000310003003180130E000FF30BE00FF3034
:10014000BF0040012F0886008701403FB900413FB2
:10015000BA00390884003A0885000008BF00BA28B0
:100160000130B9070030BA3DC8286930BF00C8283F
:10017000BF01C8283F08643A0319B5280D3A03198E
:10018000B528053A0319B028193A0319B528B82833
:10019000390884003A0885001200643A0319D1280E
:1001A000D2280429390884003A0885001200693AE7
:1001B000031DDB28DC28A2290429300886008701DA
:1001C00001088400850102308107003FB100013F32
:1001D000B2003108BB003208BC00890D893B890997
:1001E000BD00BE000C29300886008701010884008C
:1001F000850104308107003FBB00013FBC00023F86
:10020000BD00033FBE000C293F08693A0319DD28F1
:10021000053A0319F3280C293908013EB1000030D2
:100220003A3DB2002F08860087013108C03F3208EE
:10023000C13F2030BF00BE1B1E29202901302129CB
:100240000030B7000130BF023F08203E8600013079
:1002500087000030A3000030A2000030A1000A3067
:10026000A0003E08A7003D08A6003C08A5003B08EA
:10027000A4008D31E325803140012108AC00200825
:10028000AB0089316621803140012B08303E81006E
:100290000030A3000030A2000030A1000A30A0000E
:1002A0003E08A7003D08A6003C08A5003B08A400A6
:1002B0008E31DD26803140012308BE002208BD00BA
:1002C0002108BC002008BB003E083D043C043B0460
:1002D00003196B296C2971293F08031D70297129A5
:1002E00022293F080319752976299B293708031904
:1002F0007A297B299B290130BF023F08203E8600D6
:10030000013087002D3081009B293F08203E860068
:10031000013087000108B100B2013108A0003208A5
:10032000A1003808A2008C31A9248031013040019D
:10033000B1003108BF0720303F06031DA029A129C5
:100340008529092B390884003A0885001200753A7E
:10035000031DAB29AC29572AD12930088600870113
:1003600001088400850102308107003FB100013F90
:10037000B2003108BB003208BC00BD01BE01D92962
:100380003008860087010108840085010430810758
:10039000003FBB00013FBC00023FBD00033FBE0069
:1003A000D9293F08693A0319AD29053A0319C0292B
:1003B000D9293908013EB10000303A3DB2002F087A
:1003C000860087013108C03F3208C13F4E2A2030E5
:1003D000BF000130BF023F08203E86000130870089
:1003E0000030A3000030A2000030A1000A30A000BD
:1003F0003E08A7003D08A6003C08A5003B08A40055
:100400008C310E24803140012008303E81000030C4
:10041000A3000030A2000030A1000A30A0003E0876
:10042000A7003D08A6003C08A5003B08A4008731B2
:10043000A427803140012308BE002208BD00210806
:10044000BC002008BB003E083D043C043B040319EB
:100450002A2A2B2A472A3F08031D2F2A302AE92956
:10046000472A3F08203E8600013087000108B1007E
:10047000B2013108A0003208A1003808A2008C3176
:10048000A924803101304001B1003108BF0720307C
:100490003F06031D4C2A4D2A312A092B39088400B6
:1004A0003A0885000008753A0319E729572AB70169
:1004B0002F0886008701403FB100413FB20031085C
:1004C0008400320885001200733A031D682A692AE5
:1004D000742A2F08860087010130810741310318F3
:1004E000810AB701B70AB62A2F0886008701403F64
:1004F000B100413FB200310884003208850012008B
:100500006C3A031D842A852AB62A2F0886008701A3
:10051000403FB100413FB200013031078400320852
:100520000318320A850012006C3A031D982A992A92
:10053000B62A2F0886008701403FB100413FB20034
:1005400002303107840032080318320A8500120095
:10055000733A031DAC2AAD2AB62A2F0886008701FC
:100560000330810741310318810A712A37080319C2
:10057000BA2ABB2AE72A30088600870101088400CE
:10058000850102308107003FB500013FB600DD2A3A
:1005900035088600360887000108B100B20131082D
:1005A000A0003208A1003808A2008C31A9248031B3
:1005B00001304001B5070030B63D350886003608E9
:1005C00087000108031DE52AE62AC82A092B4001F5
:1005D0002F08860087010130810741310318810A05
:1005E000092B2F0886008701403FB100413FB20030
:1005F00031088400320885000008B300B4013308D4
:10060000A0003408A1003808A2008C31A924803150
:10061000E72A0800400131088039BB003135C100AC
:10062000B01F132B142B152B411441080319192B40
:100630001A2B292B410A031D1E2B1F2B272B0030A1
:10064000B1000030B0000030AF000030AE00B01795
:10065000312B0030B1000030B0000030AF0000306E
:10066000AE0035088039B6003608BB063535BC000B
:10067000B41F3B2B3C2B3D2B3C143C080319412B56
:10068000422B512B3C0A031D462B472B4F2B00308E
:10069000B5000030B4000030B3000030B200B41731
:1006A000592B0030B5000030B4000030B3000030EA
:1006B000B2003C0803195D2B5E2B632B4108031D20
:1006C000622B632B6C2B0030B1000030B000003087
:1006D000AF000030AE00442D2E08A00034088A314F
:1006E000C222833140012108C7002008C600460805
:1006F000B600B701B801B9013908C0003808BF0019
:100700003708BE003608BD004708B600B701B8017B
:10071000B9013908C5003808C4003708C3003608D5
:10072000C2002F08A00033088A31C2228331400161
:100730002108C7002008C6004608B600B701B80166
:10074000B9013608BD073708BE3D3808BF3D390836
:10075000C03D4708B600B701B801B9013608C20765
:100760003708C33D3808C43D3908C53D3008A000EE
:1007700032088A31C222833140012108C700200893
:10078000C6004608B600B701B801B9013608BD0772
:100790003708BE3D3808BF3D3908C03D4708B600A0
:1007A000B701B801B9013608C2073708C33D380898
:1007B000C43D3908C53D0830BD35BE0DBF0DC00D67
:1007C000890BDC2B2F08A00032088A31C22283312A
:1007D00040012108C7002008C6004608BD07470899
:1007E000BE3D0030BF3DC03D2E08A00033088A3119
:1007F000C222833140012108C7002008C6004608F4
:10080000BD074708BE3D0030BF3DC03D0830BD3587
:10081000BE0DBF0DC00D890B072C2E08A00032089D
:100820008A31C222833140012108C7002008C60056
:100830004608BD074708BE3D0030BF3DC03D2F08FC
:10084000A00034088A31C222833140012108C70048
:100850002008C6004608C2074708C33D0030C43D13
:10086000C53D3008A00033088A31C22283314001DF
:100870002108C7002008C6004608C2074708C33D34
:100880000030C43DC53D3008A00034088A31C22282
:10089000833140012108C7002008C6004608B60081
:1008A0004708B700B801B9010830B635B70DB80D23
:1008B000B90D890B552C3608C2073708C33D3808D7
:1008C000C43D3908C53D3D08B6003E08B7003F08A5
:1008D000B8004008B9001830B936B80CB70CB60CDF
:1008E000890B6C2C3608C2073708C33D3808C43D55
:1008F0003908C53D0830BD35BE0DBF0DC00D890B93
:100900007B2C41083C07B600B701B70D3608823E84
:10091000C600FF30373DC700A42C0130C235C30DDF
:10092000C40DC50D890B8E2CC01F972C982C992CAB
:1009300042140130BD35BE0DBF0DC00D890B9A2C80
:10094000FF30C607FF30C73DC41FA72CA82C8D2C35
:10095000BC01C01FAC2CAD2CC92CFF303D05B6002E
:10096000FF303E05B700FF303F05B8007F3040053F
:10097000B90039083804370436040319C02CC12CD7
:10098000C42CBC01BC0AC92C421CC72CC82CC92CC5
:10099000C12C3C080319CD2CCE2CF62C0130C207FB
:1009A0000030C33D0030C43D0030C53D451CD92C4E
:1009B000DA2CF62C4208B6004308B7004408B80009
:1009C0004508B9000130BA00B937B80CB70CB60CFD
:1009D000BA0BE42C3908C5003808C4003708C30036
:1009E0003608C2000130C6070030C73D4708803ACC
:1009F000B60080303602031DFF2CFF304602031C78
:100A0000022D032D0D2D7F304001C5008030C40024
:100A10000030C3000030C200382D40014708803A42
:100A2000B60080303602031D172D01304602031830
:100A30001A2D1B2D262D00304001C5000030C400AA
:100A40000030C3000030C200BB01382D4001460811
:100A5000C100FF30C205FF30C3057F30C405003040
:100A6000C505411C342D352D362DC4174136C50022
:100A70003B08B6003608C5044508B1004408B0007C
:100A80004308AF004208AE000800893103218531D8
:100A9000003A03194C2D4D2D2D2E40016208803A4D
:100AA000DE0080305E02031D572D3F3061020318C7
:100AB0005A2D5B2D0D2E8A31E62285314001DE0054
:100AC0006108A03E8600013087005E088100610851
:100AD000A03E8600013087000A300106031D712DFB
:100AE000722D082E6108A03E86000130870081012A
:100AF0001A30A0009130A100A0308B315D238531E8
:100B0000400120082104031D862D872D9B2D0030D8
:100B1000C7009130C80048308931F821853148300C
:100B20004001A2000130A3008A317B2285314001BF
:100B3000E401E40AF92DF130C7009030C800A0307C
:100B4000C9000130CA0048308931F8218531483068
:100B50004001A2000130A3008A317B228531A03000
:100B60008E315F268531400126084101E9004001B0
:100B700027084101EA00890D893B8909EB00EC0057
:100B800000304001D2004030D30041016C084001E8
:100B9000D70041016B084001D60041016A084001BD
:100BA000D500410169084001D4008F316D2785319E
:100BB000DE304001C7009030C80041016C084001A0
:100BC000CC0041016B084001CB0041016A084001A3
:100BD000CA00410169084001C90048308931F82143
:100BE000853148304001A2000130A3008A317B22C8
:100BF00085314001E101E2010030A000A100403058
:100C0000A2000030A300A0308931C02185312D2EF3
:100C10000130E1070030E23D2D2E68304001C70071
:100C20009030C80048308931F82185314830400182
:100C3000A2000130A3008A317B22853100304001BF
:100C4000A000A1004030A2000030A300A0308931F4
:100C5000C02185314001E101E2010800893178219C
:100C600086318B170B1736304001A0000A30A100E7
:100C70008831CD208631B2304001A2009030A300EF
:100C80008A317B22863100304101EC000230EB00DA
:100C90002230EA00E030E9008831C420863100309B
:100CA0004001AA00AB008B31342386310030400173
:100CB000D2004030D30041016C084001D70041010F
:100CC0006B084001D60041016A084001D50041018E
:100CD00069084001D4008F316D2786310030400112
:100CE000AA00AB008B31342386318531452586310E
:100CF0004001650803197D2E7E2E972E4C30C700CB
:100D00009030C8006608DF00E0015F08C900600895
:100D1000CA0048308931F821863148304001A200AC
:100D20000130A3008A317B2286314001E50164084D
:100D3000031D9B2E9C2E752E6308031DA02EA12E35
:100D4000752E4101400841040319A72EA82E752EC7
:100D50009A304001C7009030C80041013908400175
:100D6000CA00410138084001C90048308931F821E2
:100D7000863148304001A2000130A3008A317B2235
:100D8000863181304001C7009030C80041013B08E6
:100D90004001CA0041013A084001C9004830893188
:100DA000F821863148304001A2000130A3008A3189
:100DB0007B228631C9304001C7009030C800410114
:100DC00041084001CA00410140084001C9004830C3
:100DD0008931F821863148304001A2000130A3005A
:100DE0008A317B2286314101C001C101752E8031DB
:100DF00043284001A80028080319FF2E002F142FB4
:100E0000A31F032F042F142F2009AA002109AB00D0
:100E10002209AC002309AD00AA0A0319AB0A031981
:100E2000AC0A0319AD0A1C2F2308AD002208AC0040
:100E30002108AB002008AA00230822042104200472
:100E4000031D232F242F2D2F0030A3000030A200DC
:100E50000030A1000030A000A32F9630A9003B2F46
:100E60000130A4002408A9070130AD36AC0CAB0C4E
:100E7000AA0C890B352FFE302D05031D402F412F65
:100E8000302F552F0130A4002408A9070130AA07EC
:100E90000030AB3D0030AC3D0030AD3D0130AD36F3
:100EA000AC0CAB0CAA0C890B4F2FFF302D05031D8A
:100EB0005A2F5B2F422F652F0130A9020130AA352E
:100EC000AB0DAC0DAD0D890B5F2FAC1B682F692FDF
:100ED0006F2F0230290203186E2F6F2F5C2F2918F5
:100EE000722F732F7B2FFF30AA05FF30AB057F30A9
:100EF000AC05FF30AD050310A90C2908A400A5011D
:100F0000A601A7011830A435A50DA60DA70D890BC4
:100F1000832F2408AA042508AB042608AC0427085C
:100F2000AD0428080319952F962F9B2FA31F992FE7
:100F30009A2F9B2FAD172D08A3002C08A2002B0879
:100F4000A1002A08A000080000304001AC000030D9
:100F5000AB000030AA000030A900230822042104BD
:100F600020040319B42FB52FF62FAD01AD0AC32FFE
:100F70000130A035A10DA20DA30D890BB92F0130B1
:100F8000A8002808AD07A31FC62FC72FB82F013010
:100F9000A935AA0DAB0DAC0D890BC82F230827026C
:100FA000031DDC2F22082602031DDC2F2108250249
:100FB000031DDC2F20082402031CDF2FE02FE92F64
:100FC0002008A4022108A53B2208A63B2308A73B32
:100FD00029140130A336A20CA10CA00C890BEA2F16
:100FE0000130AD02031DF52FF62FC72F2C08A300EB
:100FF0002B08A2002A08A1002908A0000800080068
:10114000080043019012080042011D121D160800FC
:10115000640080010131890BA9280034FE001200CF
:101160001E00FE0BAF2800347208031DB828BA28F1
:101170000130BB28003008007734CC342B344134A4
:10118000963400340034003400304001AA000130AD
:10119000AB008B3134238831080040012108410124
:1011A000EE00400120084101ED00080060305101CF
:1011B0008D008F01910106309300920108004001DB
:1011C00021084101DB00400120084101DA0008004C
:1011D0004E0119100F1043018F01900192018D01F2
:1011E0000800400121084101D300400120084101CD
:1011F000D2000800400121084101D500400120082B
:101200004101D400080040016B08031D08290A2988
:1012100001300B29003008004E010C100B14003077
:101220004001A0000030A1008831DF208931080092
:1012300040012008210403191E291F2926292108FD
:101240004101CF00400120084101CE0008004001CB
:101250002008210403192D292E29352921084101AF
:10126000CD00400120084101CC00080040012008C9
:10127000210403193C293D29442921084101DD00AD
:10128000400120084101DC00080040012008210441
:1012900003194B294C29532921084101DF00400142
:1012A00020084101DE0008004E01121046010C0822
:1012B000F8000D08F9007908F6007808F5004101FA
:1012C0006E088A006D080A00893108004001AC1BD5
:1012D0006A296B296C2977292B09AD002C09AE00EE
:1012E000AD0A0319AE0A2D08AB002E08AC000800A9
:1012F0008831D62089318B31CD23893189318E21B6
:1013000089318B31902389318831E82089318B31C3
:101310000C23893189310C21893108008430460140
:101320008E008F018D018C01A0304001A00008309B
:10133000A1008831CD20893144011E08FC390138D3
:101340009E004E0112101C1408000830720203188F
:10135000AA29AB29BD297308B03E86008701010880
:1013600042019A007308013E0739F6007608F3003F
:101370000130F5007508F207BF294E011912080067
:101380004001A6002608A500CF29250886000130C7
:101390008700200881000130A4002408A50701303F
:1013A000A2020030A33B220A031DDA29230A031DEF
:1013B000DA29DB29C52908004001C4004108C6001C
:1013C0004008C500EB294530AF004208B000440892
:1013D00080317A2089314001450884004608850023
:1013E0001200031DF429F529E329C001C1010800F9
:1013F0004001CF004930CE004F08D000D201D301C8
:10140000D901DA014808C1004708C0004E30C200C7
:1014100050308931DC218931400152084F07CD001D
:101420004D08860001308700810108004001A401B9
:10143000A501201C1C2A1D2A212A2208A4072308F2
:10144000A53D0130A235A30D890B222A0130A1361A
:10145000A00C890B272A20082104031D302A312AD9
:10146000192A2508A1002408A000080040016408EA
:10147000031D3B2A3C2A3D2A572A6335B83E860085
:1014800087017508C03F7608C13F6303031D492AE1
:101490004A2A532A410138083A02C00039083B3B26
:1014A000C1004001E4010130F7007708E3060800BD
:1014B0004E01191A5C2A5D2A622A40012008420165
:1014C0009A00782A72080319662A672A782A74080B
:1014D000B03E860087014001200881007408013E6B
:1014E0000739A1002108F4004E0119120130F2025F
:1014F0004E0119160800932A8831B4208A31003A27
:101500000319832A842A7C2A4001220884002308A4
:1015100085000008A0008A3158228A31013040013C
:10152000A2070030A33D4001220884002308850063
:101530001200031D9C2A9D2A7C2A080040012008D5
:10154000A6002208A5002108A400BB2A26088600C0
:101550008701010843018C004E010F1CB02AB12AFB
:10156000AC2A0F1001304001A3002308A607013068
:10157000A4020030A53B24082504031DC02AC12A6B
:10158000A62A08004001A800A401A5012008A20085
:10159000A3012208A6002308A700281CD02AD12ACC
:1015A000D52A2608A4072708A53D0130A635A70D92
:1015B000890BD62A0310A80C2808031DE02AE12A6B
:1015C000CD2A2508A1002408A00008007008403E8C
:1015D00086000130870001084001A1007008013E2B
:1015E0000739A0002008F0007035A03E8600870172
:1015F000403F4101D000413FD1004E0199124001CE
:101600006B080319042B052B072B0130EB024E014D
:10161000991640012108080044010E108F01900125
:1016200002309100FF308D00FE308C000D0841012A
:10163000D90044010C084101D80000304001A0004D
:101640000030A1008831FA208B3100304001A00029
:101650000030A1008831F1208B314E0110101110A3
:10166000053044018E00080040012B08AC002A0818
:10167000AD00A6018D316D258B31003A0319412B48
:10168000422B5C2B400119132C30A0000130A1002B
:101690000030A2008A319E228B312D304001A00003
:1016A0000130A1000030A2008A319E228B3140011E
:1016B00019178831A1208B3108004001A300682B45
:1016C0000130A2002208A3070130A0070030A13D8D
:1016D00020088400210885000008A2002308860055
:1016E0000130870001082206031D772B782B812B00
:1016F00023088600013087000108031D802B812B01
:10170000602B230886000130870020088400210810
:10171000850000080102A000A101031CA10308002C
:101720004E01991259304001A0000C30A1008931BE
:1017300036218B314E011912A5304001A00009302D
:10174000A100893145218B31483042019F00903002
:101750009D0026309E0040309B0003309C000230EC
:101760004001A0000030A100893118218B31A43044
:101770004001A0000830A100893127218B314101AF
:10178000D001D101F401F3010830F200F101F001C0
:101790004001EB014E0199160800400198019901A2
:1017A0009A011F30920080309300FF309400073080
:1017B0007E01B8008030C300DF30CE00B901C40123
:1017C000CF01BA01C501D0013730BB00F030C600EF
:1017D000FF30D1003F30BC00F030C700FF30D200F6
:1017E00004307D01CB0014307E019C000F30950049
:1017F0000D307D01C50013307E019D0015307D0147
:10180000A10009307E01A500BD01BE01BF01C801D4
:10181000C901CA01D301D401D50108004001230840
:101820002204210420040319162C172C502CA90182
:10183000A90A252C0130A035A10DA20DA30D890BFD
:101840001B2C0130A8002808A907A31F282C292C2D
:101850001A2C23082702031D372C22082602031DF9
:10186000372C21082502031D372C20082402031CD5
:101870003A2C3B2C432C2008A4022108A53B22082B
:10188000A63B2308A73B0130A336A20CA10CA00C59
:10189000890B442C0130A902031D4F2C502C292CFC
:1018A0002708A3002608A2002508A1002408A000FC
:1018B00008007135A03E860087010030C03FC13F5F
:1018C00042019D1C642C652C762C7135A03E86004F
:1018D0008701011541014C084D040319702C712C2E
:1018E000762C4D088A004C080A008C3142011D1DDF
:1018F0007A2C7B2C8C2C7135A03E860087018114BC
:1019000041014E084F040319862C872C8C2C4F085C
:101910008A004E080A008C3142011908F60071084D
:10192000013E0739F70077087006031D982C992CA3
:101930009A2CA82C7108403E86000130870076085A
:1019400081007708F1000130F50075084001EB07D0
:101950000800400122080319AE2CAF2CB42C220839
:10196000031DB32CB42CB92C20088731FF278C31F0
:10197000FB2C2208093E860087011600010403198A
:10198000C22CC32CE12C2208093E86008701403F6F
:10199000A300413FA4002208023E86008701403F89
:1019A000A500413FA6002608803AA7002408803AF7
:1019B0002702031DDD2C230825020318E02CE12C4F
:1019C000FB2C40012208860087012208023E840089
:1019D000850100080107A300230886000130870065
:1019E000200881002208023E86008701013081071D
:1019F00041310318810A0800031040014A0D4B0DC4
:101A0000D1005108031D052D062D0F2D0030CB00F0
:101A10000030CA000030C9000030C8006C2D4808F2
:101A2000CC004908CD004A08CE004B08CF001F303B
:101A3000CF36CE0CCD0CCC0C890B182D4C08D00019
:101A4000CA17FF30C805FF30C905FF30CA0500308E
:101A5000CB059630D102D11F2E2D2F2D472D5108A9
:101A6000803A973E0318352D362D372D062D01303F
:101A7000CB36CA0CC90CC80C890B382D0130CC00F0
:101A80004C08D107031D452D462D372D5C2D2030E8
:101A90005102031C4C2D4D2D572D062D0130C835FC
:101AA000C90DCA0DCB0D890B4F2D0130D102510844
:101AB000031D5B2D5C2D4E2D50080319602D612DEB
:101AC0006C2DC809C909CA09CB09C80A0319C90A72
:101AD0000319CA0A0319CB0A08004301901A712D91
:101AE000722DDF2D40012608A700A8012708A000BD
:101AF0002808A1000530A2000030A3008A31162278
:101B00008D3125304001200784001130213D80387F
:101B10008500000843018F0040012608A700A801A6
:101B20002708A0002808A1000530A2000030A3006B
:101B30008A3116228D312630400120078400113071
:101B4000213D8038850000084301900040012608AF
:101B5000A700A8012708A0002808A1000530A200BE
:101B60000030A3008A3116228D3127304001200732
:101B700084001130213D8038850000084301920027
:101B800040012608A700A8012708A0002808A100F6
:101B90000530A2000030A3008A3116228D31283092
:101BA0004001200784001130213D80388500000865
:101BB00043018D0090164001A901A90AE12D4001C1
:101BC000A901290808004001AA01A71FE82DE92D55
:101BD000F62DA409A509A609A709A40A0319A50AAF
:101BE0000319A60A0319A70AAA01AA0AA31FF92D15
:101BF000FA2D052EA009A109A209A309A00A03191B
:101C0000A10A0319A20A0319A30A23082204210422
:101C1000200403190C2E0D2E462EA901A90A1B2EF5
:101C20000130A035A10DA20DA30D890B112E01309D
:101C3000A8002808A907A31F1E2E1F2E102E230858
:101C40002702031D2D2E22082602031D2D2E2108FA
:101C50002502031D2D2E20082402031C302E312EB8
:101C6000392E2008A4022108A53B2208A63B230800
:101C7000A73B0130A336A20CA10CA00C890B3A2E75
:101C80000130A902031D452E462E1F2E2A080319D6
:101C90004A2E4B2E562EA409A509A609A709A40A67
:101CA0000319A50A0319A60A0319A70A2708A300FE
:101CB0002608A2002508A1002408A0000800400171
:101CC000AD00AB01AC01AA01692E0130A8002808C3
:101CD000AD072D088600013087002030010603196A
:101CE000722E732E652E2D08860001308700F73086
:101CF0000107A80005302802031C7F2E802E652EC8
:101D00002D088600013087002D300106031D892E25
:101D10008A2E912EAA01AA0A0130A8002808AD0730
:101D2000BA2E2D088600013087002B300106031DD6
:101D30009A2E9B2EBA2E8C2E2D08860001308700FD
:101D40002C08A1002B08A0000A30A2000030A3003C
:101D50008A3116228E3140012108A9000108200293
:101D6000A800031CA9032808303EAB000030293D21
:101D7000AC008C2E2D08860001308700D030010782
:101D8000A8000A302802031CC62EC72E9C2E2A0843
:101D9000031DCB2ECC2ED82E2B09A8002C09A90070
:101DA000A80A0319A90A2808A6002908A700DC2EFA
:101DB0002C08A7002B08A60008004001AA01A31FB9
:101DC000E22EE32EF02EA009A109A209A309A00A80
:101DD0000319A10A0319A20A0319A30AAA01AA0A4C
:101DE000A71FF32EF42E032FA409A509A609A709FE
:101DF000A40A0319A50A0319A60A0319A70A0130A0
:101E0000A8002808AA060030AE000030AD0000305F
:101E1000AC000030AB002308220421042004031985
:101E2000122F132F542FA901A90A212F0130A035F9
:101E3000A10DA20DA30D890B172F0130A8002808B2
:101E4000A907A31F242F252F162F0130AB35AC0D6A
:101E5000AD0DAE0D890B262F23082702031D3A2F47
:101E600022082602031D3A2F21082502031D3A2FBE
:101E700020082402031C3D2F3E2F472F2008A402D8
:101E80002108A53B2208A63B2308A73B2B140130C1
:101E9000A336A20CA10CA00C890B482F0130A9027B
:101EA000031D532F542F252F2A080319582F592F5C
:101EB000642FAB09AC09AD09AE09AB0A0319AC0A32
:101EC0000319AD0A0319AE0A2E08A3002D08A200BB
:101ED0002C08A1002B08A000080040015708A3000F
:101EE0005608A2005508A1005408A0000030863111
:101EF000F9268F3140012308B5002208B4002108DB
:101F0000B3002008B2004130B1002B30B000CC301B
:101F1000AF007730AE0083310A238F3140013108A2
:101F2000CB003008CA002F08C9002E08C8008C3129
:101F3000FC248F3140014B084201EB0040014A086C
:101F40004201EA00400149084201E9004001480815
:101F50004201E80068084001D800420169084001D8
:101F6000D90042016A084001DA0042016B084001D1
:101F7000DB000E30DB36DA0CD90CD80C890BBA2F0B
:101F8000FF305805DC003F305905DD0000305C04AF
:101F90004201EC00403040015D044201ED00FF30A1
:101FA00068054001D8003F30420169054001D90071
:101FB000003058044201EE00403040015904420113
:101FC000EF0000304001AA002030AB008B313423F9
:101FD0008F3142016F084001AB0042016E084001A1
:101FE000AA008B3134238F3142016D084001AB00D0
:101FF00042016C084001AA008B3134238F31080064
:1020000090340B3400340034E6340A3458340A3443
:1020100003340934B4340834003400340034003458
:102020000034003400340034003400340034003410
:102030000034003400340034003400340034003400
:102040000034003445340934363409340034003463
:10205000183409342734093400340034003400348F
:10206000E8340834003400346D340D34A1340834BD
:1020700000340034003400349E340A340034003418
:1020800000340034003400340034003400340034B0
:10209000003400340034003454344D34523431347C
:1020A00020345334653463346F346E3464347334A1
:1020B000203443346F3475346E34743420346934CE
:1020C00073343A342034253464340D340A34003403
:1020D0000D340A34453478346334653465346434FB
:1020E000653464342034423475346634663465347F
:1020F00072342034533469347A3465340D340A34FC
:10210000003443344334503420345334653463341E
:102110006F346E3464342034433461347034743436
:102120007534723465343A342034253475340D34C2
:102130000A34003443344334503420344634693450
:1021400072347334743420344334613470347434EE
:102150007534723465343A342034253475340D3492
:102160000A340034533443344D34413454345534F8
:102170002034483465346C346C346F342C3420345F
:1021800057346F3472346C34643421340D340A346F
:102190000034433443345034203444346934663496
:1021A00066346534723465346E34633465343A347D
:1021B0002034253475340D340A34003446347234F6
:1021C00065346334203473346534743420347434A7
:1021D0006F343A34203425346C3464340D340A348A
:1021E000003452346534633469346234693464349D
:1021F0006F343A342034253473340D340A340034C7
:10220000433443345034203465346E3461346234A2
:102210006C34653464340D340A3400340C340B34BB
:10222000003400340034003400340034FA3408340C
:10223000003400344334433450345F3445346E3416
:10224000613462346C346534003440341A341034F0
:0E2250003F3400346434003410340134003460
:020000040001F9
:0A000E00EC3F5D3F9F3FFF1FFF3FE7
:00000001FF
